:020000040800F2
:1000000030290020C1010008A11E0008091C0008B9
:100010009D1E0008470700089D3A000800000000E8
:10002000000000000000000000000000E9290008B6
:100030007708000800000000A51E0008EB29000852
:10004000DB010008DB010008DB010008DB01000820
:10005000DB010008DB010008DB010008DB01000810
:10006000DB010008DB010008DB010008DB01000800
:10007000DB010008DB010008DB010008DB010008F0
:10008000DB010008DB010008DB010008DB010008E0
:10009000DB010008DB010008DB010008DB010008D0
:1000A000DB010008DB010008DB010008DB010008C0
:1000B000DB010008DB010008DB010008DB010008B0
:1000C000DB010008DB010008DB010008DB010008A0
:1000D000DB01000881310008DB010008DB010008BA
:1000E000DB010008DB010008DB010008DB01000880
:1000F000DB010008DB010008DB010008DB01000870
:10010000DB010008DB010008DB010008DB0100085F
:10011000DB010008DB010008DB010008DB0100084F
:10012000DB010008DB010008DB010008DB0100083F
:10013000DB010008DB010008DB010008DB0100082F
:10014000DB010008DB010008DB010008DB0100081F
:10015000DB010008DB010008DB010008DB0100080F
:10016000DB010008DB010008DB010008DB010008FF
:10017000DB010008DB010008DB01000800000000D3
:10018000DB010008DB010008DB010008DB010008DF
:10019000DB010008DB010008DB010008DB010008CF
:1001A000DB010008DB010008DB010008DFF80CD0F0
:1001B00000F048FA004800470950000830290020A4
:1001C0000648804706480047FEE7FEE7FEE7FEE7F1
:1001D000FEE7FEE7FEE7FEE7FEE7FEE7B52A0008DA
:1001E000AD0100082DE9F05F0546002092469B46D0
:1001F00088460646814640241BE02846414647463D
:10020000224600F057F853465A46C01A914110D37F
:1002100011461846224600F03EF82D1A67EB0108F9
:100220004F4622460120002100F035F817EB000967
:100230004E41201EA4F10104DFDC484631462A4627
:100240004346BDE8F09FD2B201E000F8012B491E01
:10025000FBD270470022F6E710B513460A46044663
:100260001946FFF7F0FF204610BD30B50B4601469A
:1002700000202022012409E021FA02F59D4205D345
:1002800003FA02F5491B04FA02F52844151EA2F1EF
:100290000102F1DC30BD202A04DB203A00FA02F131
:1002A000002070479140C2F1200320FA03F3194364
:1002B00090407047202A04DB203A21FA02F0002106
:1002C000704721FA02F3D040C2F120029140084366
:1002D000194670472DE9FE4F804681EA0300C00FA2
:1002E0000C46009021F0004123F00045B8EB0200DD
:1002F000A94105D24046214690461C460B4602467F
:1003000023F00040104347D0270DC7F30A00C3F382
:100310000A510290401A019040286BDAC3F313008F
:1003200040F4801B0098924620B10023D2EB030AD0
:1003300063EB0B0B01985946C0F140025046FFF7A2
:10034000AAFF06460D4650465946019A00F08CF920
:1003500010EB08006141002487EA115284EAE77338
:100360001A4340D0009A62B3019A012A4FEA075219
:1003700015DC001B61EB02014FF0004202EA07525C
:10038000CDE90042001C41F5801132462B4600F0B9
:100390008CF903B0BDE8F08F40462146F9E7001B19
:1003A00061EB0201001C41F5801300185B4120182D
:1003B000A2F5001747EB030140EAD570B6196D416D
:1003C00011E06D084FEA360645EAC0754FEA07525C
:1003D000001B61EB0201001C41F5801149084FEA46
:1003E00030000019514132462B4603B0BDE8F04FB2
:1003F00000F04CB90098012240000023D0EB02022B
:1004000063EBE073009821464FEAE074B8EB00001C
:1004100061EB0401E9E783F000435BE781F0004111
:1004200058E72DE9FE4F81EA030404F0004421F06F
:10043000004100944FF0000B23F0004350EA010408
:100440005ED052EA03045BD0C3F30A54C1F30A55E9
:100450002C44A4F2F3340194A0FB0254C1F3130121
:1004600041F48011C3F3130343F4801301FB0244EE
:1004700000FB034E840A970A44EA815447EA8357F3
:10048000A4FB076802958D0A05FB07854FEA932CAC
:1004900004FB0C542705029D4FEA065847EA16371D
:1004A000B5EB08056EEB070C870E920E47EA811735
:1004B00042EA8312A7FB0201B6EB0B0164EB0004D6
:1004C0002B0D43EA0C335E1844EB1C50DA465146C0
:1004D000E7FB0201C5F313044FEA0B3343EA14535D
:1004E0004FEA0432019C43EA0603A4F10C0402948F
:1004F000009CCDE900B400F0D8F803B0BDE8F08F5F
:1005000000200146F9E72DE9F04D81EA030404F0EB
:10051000004B21F0004514464FF0000A23F0004143
:1005200050EA050220D054EA01021DD0C5F30A5753
:100530000246C5F31303C1F31300C1F30A5640F496
:10054000801543F48013A7EB0608101BD64608F26B
:10055000FD3873EB050002D308F1010801E09218A1
:100560005B41B8F1000F03DA00200146BDE8F08DD1
:1005700000204FF48011064684460EE0171B73EBF3
:10058000050705D3121B63EB050306434CEA010C78
:1005900049084FEA300092185B4150EA0107EDD15B
:1005A00052EA030012D082EA040083EA05010843FC
:1005B00005D0101BAB4106D20122002306E0002229
:1005C0004FF0004302E06FF0010253101AEB0600F7
:1005D0004CEB085110EB0A0041EB0B01BDE8F04D6C
:1005E00000F054B8C1F30A52C1F3130140F2FF33D3
:1005F00041F480119A4202DA00200146704740F22D
:1006000033439A42A2F2334202DC5242FFF752BE17
:10061000FFF741BE30B5041E71F1000404DB4FF05A
:100620000044404264EB0101141E73F1000405DB39
:100630001C464FF00043524263EB0403994208BF4B
:10064000904230BD064C074D06E0E06840F00103E3
:1006500094E8070098471034AC42F6D3FFF7AAFDA0
:10066000CC510008EC510008202A06DBCB17203AB9
:1006700041FA02F043EAE07306E041FA02F3D040A7
:10068000C2F12002914008431946704710B5141E6C
:1006900073F1000408DA401C41F1000192185B413B
:1006A0001A4301D120F0010010BD2DE9F04D924612
:1006B0009B4611B1B1FA81F202E0B0FA80F2203229
:1006C0009046FFF7E8FD04460F4640EA0A0041EA7B
:1006D0000B0153465A46084313D0114653EA010012
:1006E00019D0C8F140025046FFF7E4FD05460E461A
:1006F000504659464246FFF7CEFD084305D001203B
:1007000004E020463946BDE8F08D0020054346EA66
:10071000E0762C4337430A986305E40AA0EB08000F
:100720000022FD0A44EA47540A3002D5002001465F
:10073000E9E7010510196941DDE90845001969413A
:10074000BDE8F04DA2E700BFFEE7000001460878D3
:1007500010381823B0FBF3F20848805CC865032A00
:1007600005D908686FF30900001D886503E0086873
:100770006FF309008865886D70470000D05000084D
:10078000014600208A6A8B69CBB932B1012A0DD0AB
:10079000022A03D0032A10D10EE000BFCB6A03F077
:1007A0008073B3F1807F00D1012007E0CB6AB3F101
:1007B000C07F00D1012001E000E000BF34E08B6980
:1007C000B3F5005F1AD132B1012A07D0022A03D053
:1007D000032A11D10AE000BF01200EE0CB6A03F02A
:1007E0008073B3F1807F00D1012006E0CB6AB3F1C2
:1007F000C07F00D1012000E000BF15E032B1012A26
:1008000005D0022A04D0032A0CD103E000BF00BFA8
:10081000012008E0CB6A03F08073B3F1807F00D140
:10082000012000E000BF00BF704710B5046863609E
:100830008468402C04D10468A2600468E16003E08D
:100840000468A1600468E26010BD30B504682468E3
:1008500024F4802405682C60046863608468402C5C
:1008600004D10468A2600468E16003E00468A16048
:100870000468E26030BD704772B600BFFEE72DE944
:10088000F04704460E4617461D46DDF820804FF01F
:100890000009A068802804D1400060654FF001097C
:1008A00029E000BF94F83400012802D10220BDE8FD
:1008B000F087012084F8340000BF94F83500012847
:1008C00017D1022084F835002068006840F48020A9
:1008D000216808602068056143463A463146204653
:1008E000FFF7A3FF2068006840F00100216808605E
:1008F00001E04FF002094846D9E700002DE9F04138
:100900000446002500F0E6F9074614B90120BDE8C9
:10091000F081606A00B100BF022084F8350000BF9A
:10092000002084F8340000BF2068006820F0010037
:10093000216808600AE000F0CDF9C01B052805D940
:1009400020206065032084F83500E0E72068006817
:1009500000F001000028EED120680568214805401C
:10096000D4E901010843E16808432169084361694A
:100970000843A1690843E1690843216A0843054324
:10098000606A042803D1D4E90B01084305432068B9
:1009900005602068456925F00705606A0543606ABF
:1009A00004280DD1A06A0543E06A48B12046FFF74C
:1009B000E7FE28B140206065012084F83500A6E7F5
:1009C000206845612046FFF7C1FE064694F85C109A
:1009D0003F208840B06000206065012084F8350029
:1009E000002094E73F8010F02DE9F04704460D46C3
:1009F00016461F464FF00008D4F8589000BF94F8F0
:100A00003400012802D10220BDE8F087012084F8DB
:100A1000340000BF94F83500012825D1022084F865
:100A20003500002060653B46324629462046FFF7E8
:100A30000CFF94F85C103F208840C9F8080020683B
:100A4000006840F0160021680860206C28B120681A
:100A5000006840F00800216808602068006840F0E5
:100A600001002168086006E000BF002084F834001F
:100A700000BF4FF002084046C6E7000070B50446CC
:100A800000F028F906462546681C10B10448007895
:100A9000054400BF00F01EF9801BA842FAD370BDC8
:100AA00008000020F8B502460B460025002400206F
:100AB0000021E0E0012606FA01F51E6806EA0504B9
:100AC000AC4274D11E7906F00306012E04D01E79C3
:100AD00006F00306022E13D190684F000326BE4095
:100AE000B0434F00DE68BE4030439060506801263E
:100AF0008E40B0431E79C6F300168E4030435060DE
:100B00001E7906F00306032E09D0D0684F00032695
:100B1000BE40B0434F009E68BE403043D0601E7957
:100B200006F00306022E13D1CF0802F1200656F874
:100B300027004E07F70E0F26BE40B0434F07FF0EAB
:100B40001E69BE403043CF0802F1200646F8270058
:100B500010684F000326BE40B0431E7906F003061E
:100B60004F00BE40304310605E6806F44036002EF1
:100B70001DD000BF00260096414E366846F48046E0
:100B80003F4F3E603E46366806F48046009600BF02
:100B900000BF3C4E8F0856F827008E07370F0F26F0
:100BA000BE40B043384EB24202D100262EE061E092
:100BB000364EB24201D1012628E0354EB24201D173
:100BC000022623E0334EB24201D103261EE0324E0C
:100BD000B24201D1042619E0304EB24201D10526BD
:100BE00014E02F4EB24201D106260FE02D4EB24244
:100BF00001D107260AE02C4EB24201D1082605E0B9
:100C00002A4EB24201D1092600E00A268F073F0F83
:100C1000BE4030431B4E8F0846F82700244E3068F4
:100C2000A0435E6806F4801606B12043204E306073
:100C3000361D3068A0435E6806F4001606B12043F6
:100C40001B4E361D30601A4E361F3068A0435E685A
:100C500006F4003606B12043154E361F3060361FAD
:100C60003068A0435E6806F4803606B12043104E1B
:100C7000083E3060491C1029FFF41CAFF8BD00008D
:100C8000443802400838014000000240000402409D
:100C900000080240000C0240001002400014024014
:100CA00000180240001C02400020024000240240C4
:100CB000083C014010B5426921EA020302EA01043E
:100CC00043EA0443836110BD0AB1816101E00B0472
:100CD00083617047014800687047000000000020F1
:100CE00003480068034909780844014908607047CF
:100CF000000000200800002010B50D48006840F4F6
:100D000000700B4908600846006840F48060086085
:100D10000846006840F480700860032000F0A6F8E0
:100D2000012000F007F800F02BF8002010BD0000B3
:100D3000003C024070B504460E4800784FF47A71CA
:100D4000B1FBF0F00C490968B1FBF0F5284600F062
:100D50001FFE08B1012070BD102C07D200222146D1
:100D6000501E00F045F80548046001E00120F2E75C
:100D70000020F0E7080000200C0000200400002004
:100D800008B500BF002000901048006840F4804083
:100D90000E4908600846006800F48040009000BFDB
:100DA00000BF00BF00200090081F006840F0805086
:100DB000091F08600846006800F08050009000BFDE
:100DC00000BF062000F052F808BD00004438024081
:100DD00001460846002809DB00F01F0301229A4063
:100DE00043099B0003F1E023C3F8002100BF7047D3
:100DF0002DE9F05F80460D461646002703F07AFC89
:100E0000074639462A46334601F00700C0F1070A73
:100E1000BAF1040F02D94FF0040A01E0C0F1070A49
:100E2000D14600F1040ABAF1070F02D24FF0000ACE
:100E300001E0A0F1030AD4464FF0010A0AFA09FAC8
:100E4000AAF1010A0AEA020A0AFA0CFA4FF0010BA7
:100E50000BFA0CFBABF1010B0BEA030B4AEA0B0498
:100E60002146404603F04EFCBDE8F09F00BF00F075
:100E70000702064B19684FF6FF031940044B0B435A
:100E800043EA0221014B196000BF70470CED00E0FE
:100E90000000FA0538B5002400BF002000901D486E
:100EA000006840F080501B4908600846006800F068
:100EB0008050009000BF00BF012017490864FFF771
:100EC00009FF044607E0FFF705FF001BB0F57A7F36
:100ED00001D9032038BD1148406800F48030B0F5D6
:100EE000803FF0D101200C494864FFF7F3FE04462F
:100EF00007E0FFF7EFFE001BB0F57A7F01D9032072
:100F0000E8E70648406800F40030B0F5003FF0D153
:100F10000020DFE74038024000000E420070004031
:100F200070B504460D460CB9012070BD58480068E4
:100F300000F00F00A84209D255490D70084600681C
:100F400000F00F00A84201D00120EEE7207800F069
:100F5000020002281DD1207800F00400042805D1E9
:100F60004C48006840F4E0504A490860207800F09E
:100F70000800082805D14748006840F4604045490A
:100F800008604448006820F0F000A1680843414927
:100F90000860207800F00100A8B36068012807D13C
:100FA0003C4808380068C0F34040B8B90120BCE7AD
:100FB0006068022802D06068032807D135480838E5
:100FC0000068C0F3406048B90120AEE731480838F6
:100FD0000068C0F3400008B90120A6E72D4800686A
:100FE00020F00300616808432A490860FFF772FE99
:100FF000064609E0FFF76EFE801B41F28831884209
:1010000002D9032091E707E02248006800F00C00B5
:101010006168B0EB810FEDD11D48006800F00F0052
:10102000A84209D91A490D700846006800F00F005F
:10103000A84201D0012078E7207800F004000428BD
:1010400007D11448006820F4E050E16808431149D2
:101050000860207800F00800082808D10D480068D2
:1010600020F46040216940EAC1000A49086000F0AC
:101070003FF808490968C1F30311074A515CC840A9
:101080000649086006480068FFF754FE00204CE758
:10109000003C024008380240D85000080C000020F4
:1010A0000400002001480068704700000C00002088
:1010B00000B5FFF7F7FF04490968C1F38221034A2D
:1010C000515CC84000BD000008380240E8500008EC
:1010D00000B5FFF7E7FF04490968C1F34231034A4D
:1010E000515CC84000BD000008380240E8500008CC
:1010F0002DE9F047002400250026A1462548006878
:1011000000F00C0020B1042805D008283AD105E0F1
:10111000DFF8849039E0DFF8849036E01D48001F46
:10112000006800F03F041B48001F006800F48000C6
:1011300078B11A481749091F0968C1F38811A0FB43
:1011400001700146224600233846FFF74BF805465A
:101150000EE011480F49091F0968C1F38811A0FB6F
:1011600001700146224600233846FFF73BF805464A
:101170000848001F0068C0F30140401C4600B5FB52
:10118000F6F902E0DFF8109000BF00BF4846BDE866
:10119000F0870000083802400024F40040787D0108
:1011A000F8B504460CB90120F8BD207800F0010024
:1011B000002874D0F948006800F00C0004280DD015
:1011C000F648006800F00C00082813D1F348001F0F
:1011D000006800F48000B0F5800F0BD1EF480838AC
:1011E0000068C0F34040002859D06068002856D1FC
:1011F0000120D9E700BF6068B0F5803F08D1E7481B
:101200000838006840F48030E449083908601EE07E
:101210006068B0F5A02F0DD1E0480838006840F4B0
:101220008020DE49083908600846006840F48030B4
:1012300008600CE0D9480838006820F48030D749AD
:10124000083908600846006820F48020086000BF64
:10125000606890B1FFF73EFD054606E0FFF73AFDF6
:10126000401B642801D903209EE7CC480838006859
:10127000C0F340400028F1D011E0FFF72BFD0546F8
:1012800006E0FFF727FD401B642801D903208BE708
:10129000C24808380068C0F340400028F1D12078E7
:1012A00000F0020002285FD1BC48006800F00C008A
:1012B00058B1BA48006800F00C0008281CD1B748A3
:1012C000001F006800F48000B0B9B4480838006816
:1012D000C0F3400020B1E068012801D0012063E79D
:1012E000AE480838006820F0F800216940EAC100E3
:1012F000AA490839086037E0E06800B30120A8492E
:101300000860FFF7E7FC054606E0FFF7E3FC401B3B
:10131000022801D9032047E7A04808380068C0F335
:1013200040000028F1D09D480838006820F0F800FF
:10133000216940EAC10099490839086014E0002099
:1013400097490860FFF7C6FC054606E0FFF7C2FCB8
:10135000401B022801D9032026E79048083800687E
:10136000C0F340000028F1D1207800F008000828E0
:101370002CD16069A8B101208A490860FFF7AAFC56
:10138000054606E0FFF7A6FC401B022801D9032012
:101390000AE782486C300068C0F340000028F1D0B2
:1013A00014E000207F490860FFF794FC054606E042
:1013B000FFF790FC401B022801D90320F4E6774890
:1013C0006C300068C0F340000028F1D1207800F0B4
:1013D0000400042870D1002770483830006800F0FD
:1013E000805090B900BF002000906C4838300068F1
:1013F00040F080506949383108600846006800F0C4
:101400008050009000BF00BF01276748006800F4CB
:101410008070B0B96448006840F480706249086028
:10142000FFF758FC054606E0FFF754FC401B022876
:1014300001D90320B8E65C48006800F480700028F9
:10144000F2D000BFA068012808D154486830006875
:1014500040F001005149683108601DE0A06805288E
:101460000DD14E486830006840F004004B496831A7
:1014700008600846006840F0010008600CE047483A
:101480006830006820F0010044496831086008466F
:10149000006820F00400086000BFA068A8B1FFF752
:1014A00019FC054609E0FFF715FC401B41F28831A5
:1014B000884202D9032077E626E038486830006881
:1014C000C0F340000028EED013E0FFF703FC054610
:1014D00008E0FFF7FFFB401B41F28831884201D949
:1014E000032061E62D4868300068C0F34000002802
:1014F000EFD1012F07D129483830006820F0805003
:1015000026493831086000BFA069002845D023482B
:10151000006800F00C0008285DD0A069022845D1C1
:1015200000201F490866FFF7D5FB054606E0FFF7D8
:10153000D1FB401B022801D9032035E617480838A3
:101540000068C0F340600028F1D1D4E907010843E6
:10155000616A40EA81110122A06AC2EB500041EAAF
:1015600000412C20005D41EA00600C49091F086021
:1015700001200B490866FFF7ADFB054606E0FFF7C3
:10158000A9FB401B022801D903200DE603480838B7
:101590000068C0F340600028F1D049E008380240FC
:1015A00000004742800E4742007000400020214961
:1015B0000866FFF78FFB054606E0FFF78BFB401B35
:1015C000022801D90320EFE51B480068C0F3406002
:1015D0000028F2D12CE0A069012800D1E4E51648EA
:1015E000001D0668A069012820D006F48001E0698A
:1015F00081421BD106F03F01206A814216D147F695
:10160000C0703040616AB0EB811F0FD106F44031E9
:101610000122A06AC2EB5000B1EB004F06D106F0E8
:1016200070612C20005DB1EB006F01D00120BBE5A3
:101630000020B9E50000474200380240704710B56D
:1016400004460CB9012010BD606A38B96068B0F575
:10165000827F00D105E00021E16102E000212161EB
:1016600061610021A16294F8510028B9002084F83A
:101670005000204600F048F8022084F8510020680D
:10168000006820F0400021680860A08800F48270A3
:10169000218901F404410843A18901F40061084350
:1016A000217C01F002010843217D01F00101084382
:1016B000218B01F400710843217F01F038010843B8
:1016C0002021095D01F080010843218D01F40051C2
:1016D0000843216808600421A06901EA104094F8D9
:1016E000241001F010010843216848602068C06997
:1016F00020F400602168C86100206065012084F842
:10170000510000209FE7000010B586B00446142168
:1017100001A8FEF79FFD3B49206888426FD100BFBA
:10172000002000903848006840F480103649086076
:101730000846006800F48010009000BF00BF00BFA2
:101740000020009030481438006840F020002E49F6
:10175000143908600846006800F02000009000BFBF
:1017600000BF4FF4607001900220029000200390AF
:10177000032004900520059001A92448FFF792F961
:101780002348244908604FF0806048604021214888
:1017900081600021C1604FF48061016100214161DD
:1017A0008161C16101624162FFF7A8F808B1FFF7EA
:1017B00063F800BF1748A064846300BF144818385A
:1017C000154908604FF08060486000211248816030
:1017D000C1604FF480610161002141618161C1619B
:1017E0004FF48031016200214162FFF787F808B1B0
:1017F000FFF742F800BF0848E064846300BF06B00A
:1018000010BD000000500140443802400014024066
:101810007064024068230020C8230020704770478E
:101820002DE9F04704460E4617461D464FF0000AC4
:1018300000BF94F85000012802D10220BDE8F087D3
:10184000012084F8500000BF94F85180D4F804902F
:10185000B8F1010F0AD0B9F5827F04D1A06810B9A0
:10186000B8F1040F02D04FF0020A7DE00EB107B1CB
:1018700015B94FF0010A77E094F85100042802D01E
:10188000052084F85100002060652663A586E58662
:10189000A763A587E5872064606494F85100042855
:1018A00006D13548E16C08643448E16CC86305E052
:1018B0003348E16C08643348E16CC8633248E16C3A
:1018C000C8640020E16C0865E38FD4F800C00CF117
:1018D0000C01A26BE06CFFF787F848B1606D40F037
:1018E000100060654FF0010A012084F851003BE0D0
:1018F0002068406840F00100216848600020A16C29
:101900000864A16CC863A16CC864A16C0865E38E0F
:10191000D4F800C00CF10C02216BA06CFFF764F846
:1019200048B1606D40F0100060654FF0010A012081
:1019300084F8510018E02068006800F0400040285A
:1019400005D02068006840F04000216808602068E9
:10195000406840F02000216848602068406840F0FE
:1019600002002168486000BF00BF002084F85000DA
:1019700000BF504662E70000112700082D2700082D
:101980001F270008A9270008E926000870477047AC
:1019900070B504462546681EB0F1807F01D3012052
:1019A0000FE0681E4FF0E02148610F214FF0FF303B
:1019B00002F0A8FE00204FF0E021886107200861B6
:1019C000002070BD10B504460CB9012010BDA069FF
:1019D00000B100E000BF94F83D0028B9002084F871
:1019E0003C00204600F028F8242084F83D002068C0
:1019F000C06820F400502168C860204601F064F8F7
:101A00002068006920F490402168086120684069DE
:101A100020F02A00216848612068C06840F4005026
:101A20002168C86000202064202084F83D0084F8EC
:101A30003E000020CAE7000010B586B0044614211D
:101A400001A8FEF707FC6749206888427ED100BFE5
:101A5000002000906448006840F01000624908606F
:101A60000846006800F01000009000BF00BF00BFF3
:101A7000002000905C481438006840F001005A498A
:101A8000143908600846006800F00100009000BFAB
:101A900000BF4FF4C060019002200290002003902C
:101AA000032004900720059001A95048FEF7FAFF93
:101AB0004F48504908604FF00060486040214D4851
:101AC00081600021C1604FF48061016100214161AA
:101AD0008161C16101624162FEF710FF08B1FEF74A
:101AE000CBFE00BF43486063846300BF4048783842
:101AF000414908604FF00060486000213E48816025
:101B0000C1604FF4806101610021416181614FF446
:101B10008071C161002101624162FEF7EFFE08B1F0
:101B2000FEF7AAFE00BF3448A063846300BF06220C
:101B300001212520FFF75CF92520FFF749F92F48FF
:101B40000068001D2D49496B096800E048E0886085
:101B50002A480068001D2949896B096888604FF48C
:101B60008070264A00901268111D244A244B906B05
:101B7000244AFEF784FE01202049896B81F8350054
:101B800000BF00201D49896B81F8340000BF00BFF1
:101B90001A4981F83C0000BF08460068406940F0DF
:101BA00080000968486115480068406940F04000BD
:101BB00012490968486100BF002000900F48006882
:101BC000006800900D4800684068009000BF00BFAA
:101BD0000A480068C06840F0100008490968C860F9
:101BE00006B010BD00100140443802400000024021
:101BF000B86402406C240020CC240020282400205B
:101C0000100200201001002000BFFEE701207047F5
:101C10002DE9F0470746884614461D460026B14682
:101C2000002240211248FFF74FF8A2B24146384641
:101C300000F03AF9814606E0761C0E48864202D34F
:101C40000220BDE8F0870C4800688068C0F3C0102F
:101C50000028F1D125B9012240210548FFF734F8C9
:101C6000B9F1000F01D10120EBE70020E9E7000006
:101C700000140240FFFF0F001023002008B500BF32
:101C8000002000900648006840F480000449086085
:101C90000846006800F48000009000BF00BF08BD47
:101CA0003038024000B587B0142102A8FEF7D2FAFE
:101CB00000BF002001904D48006840F004004B49EF
:101CC00008600846006800F00400019000BF00BFF3
:101CD00000BF002001900846006840F02000086026
:101CE0000846006800F02000019000BF00BF00BF60
:101CF000002001900846006840F080000860084617
:101D0000006800F08000019000BF00BF00BF00200D
:101D100001900846006840F001000860084600682D
:101D200000F00100019000BF00BF00BF0020019043
:101D30000846006840F4807008600846006800F4B7
:101D40008070019000BF00BF00BF002001900846D6
:101D5000006840F0400008600846006800F040005D
:101D6000019000BF00BF012240212148FEF7ACFFD7
:101D700001224FF4E0511F48FEF7A6FF0022022186
:101D80001D48FEF7A1FF4020029001200390002093
:101D90000490059002A91648FEF784FE4FF4E05027
:101DA00002900120039000200490059002A91148A0
:101DB000FEF778FE0220029001200390002004909C
:101DC000059002A90C48FEF76DFE4FF4C04002904A
:101DD0000220039000200490032005900B20069021
:101DE00002A90648FEF75EFE07B000BD303802408B
:101DF00000140240001C0240002002400018024073
:101E000010B51248124908604FF4827048600021F2
:101E10000F488160C160016141614FF400718161CF
:101E20000021C1610162416281620A21C162FFF742
:101E300006FC08B1FEF720FD05480068006840F088
:101E4000400003490968086010BD000000500140CF
:101E50001023002010B50F480F4908604FF4E130FF
:101E6000486000210C488160C16001610C21416122
:101E700000218161C161FFF7A5FD08B1FEF7FCFCFF
:101E800005480068C06840F4005003490968C8600C
:101E900010BD0000001001402824002000BFFEE714
:101EA00000BFFEE7704700002DE9F04104460D46F3
:101EB0001646002714B90120BDE8F08105E07F1C1B
:101EC000F748874201D30320F6E7F64800688068A8
:101ED000C0F3C0100028F2D10120F24981F851006E
:101EE000896C81F83500EF49C96C81F8350000BF75
:101EF0000020EC4981F8500000BF00BF896C81F8D8
:101F0000340000BF00BFE749C96C81F8340000BF4E
:101F1000E448806C0068E449884275D9E148806CE7
:101F20000068E249884201D1202069E0DD48806CE8
:101F30000068DD494839884201D1202060E0D94855
:101F4000806C0068D9496031884201D1202057E077
:101F5000D448806C0068D4491831884201D12020CF
:101F60004EE0D048806C0068D0491831884201D1D9
:101F7000C01445E0CB48806C0068CB4930398842BA
:101F800001D1C0143CE0C748806C0068C749783173
:101F9000884201D1C01433E0C248806C0068C24955
:101FA0003031884201D1C0142AE0BE48806C0068FC
:101FB000BE493031884202D14FF4001020E0B948C8
:101FC000806C0068B8491839884202D14FF400107B
:101FD00016E0B448806C0068B4499031884202D160
:101FE0004FF400100CE0AF48806C0068AE494831F7
:101FF000884203D14FF4001002E005E04FF000608A
:10200000A9494C39086074E1A648806C0068A7496A
:10201000A831884275D9A348806C0068A3498842DA
:1020200001D1202068E09F48806C00689E494839B3
:10203000884201D120205FE09A48806C00689B496B
:102040006031884201D1202056E09648806C0068BB
:1020500095491831884201D120204DE09148806C8B
:10206000006892491831884201D1C01444E08D487B
:10207000806C00688C493039884201D1C0143BE043
:102080008848806C006889497831884201D1C01441
:1020900032E08448806C006883493031884201D145
:1020A000C01429E07F48806C006880493031884244
:1020B00002D14FF400101FE07A48806C00687A4922
:1020C0001839884202D14FF4001015E07548806C31
:1020D000006876499031884202D14FF400100BE03D
:1020E0007048806C006870494831884202D14FF4D2
:1020F000001001E04FF000606B4950390860F8E0D3
:10210000FFE76848806C006868494831884275D9A3
:102110006448806C00686549884201D1202069E0EC
:102120006048806C006860494839884201D12020AD
:1021300060E05C48806C00685C496031884201D195
:10214000202057E05748806C006857491831884272
:1021500001D120204EE05348806C0068534918316B
:10216000884201D1C01445E04E48806C00684E4959
:102170003039884201D1C0143CE04A48806C006884
:102180004A497831884201D1C01433E04548806C17
:10219000006845493031884201D1C0142AE04148E5
:1021A000806C006841493031884202D14FF4001000
:1021B00020E03C48806C00683B491839884202D1D5
:1021C0004FF4001016E03748806C006837499031B2
:1021D000884202D14FF400100CE03248806C006855
:1021E00031494831884203D14FF4001002E005E044
:1021F0004FF000602D491039C8607AE02948806CA2
:1022000000682A49884201D120206FE02548806C6F
:10221000006825494839884201D1202066E02148DC
:10222000806C006821496031884201D120205DE046
:102230001C48806C00681C491831884201D120205C
:1022400054E01848806C006818491831884201D160
:10225000C0144BE01348806C006813493039884241
:1022600001D1C01442E00F48806C00680F497831FA
:10227000884201D1C01439E00A48806C00680A49DC
:102280003031884201D1C01430E00648806C0068CB
:102290000649303188420BD14FF4001026E000008F
:1022A000FFFF0F001023002058640240106002401E
:1022B000F748806C0068F749884202D14FF400105B
:1022C00014E0F348806C0068F349884202D14FF46F
:1022D00000100BE0EE48806C0068EE4960318842E7
:1022E00002D14FF4001001E04FF00060EA49A0393C
:1022F0008860E748C06C0068E6491831884274D9A4
:10230000E348C06C0068E4499039884201D120203C
:1023100066E0DF48C06C0068DE493039884201D190
:1023200020205DE0DA48C06C0068DB493039884223
:1023300001D1202054E0D648C06C0068D549303126
:10234000884201D120204BE0D148C06C0068D249BE
:102350007839884201D1C01442E0CD48C06C006891
:10236000CC491839884201D1C01439E0C848C06C42
:102370000068C9491839884201D1C01430E0C44806
:10238000C06C0068C3494831884201D1C01427E0BD
:10239000BF48C06C0068C0496039884202D14FF420
:1023A00000101DE0BA48C06C0068BA49884202D1EA
:1023B0004FF4001014E0B648C06C0068B64988427B
:1023C00002D14FF400100BE0B148C06C0068B14975
:1023D0006031884202D14FF4001001E04FF00060FC
:1023E000AC493439086070E1FFE7A948C06C006867
:1023F000A9491831884274D9A548C06C0068A6491B
:102400009039884201D1202066E0A148C06C006864
:10241000A0493039884201D120205DE09C48C06C41
:1024200000689D493039884201D1202054E0984805
:10243000C06C006897493031884201D120204BE0C0
:102440009348C06C006894497839884201D1C0141F
:1024500042E08F48C06C00688E491839884201D12B
:10246000C01439E08A48C06C00688B49183988422A
:1024700001D1C01430E08648C06C006885494831FD
:10248000884201D1C01427E08148C06C00688249AD
:102490006039884202D14FF400101DE07C48C06CC6
:1024A00000687C49884202D14FF4001014E078485B
:1024B000C06C00687849884202D14FF400100BE0EC
:1024C0007348C06C006873496031884202D14FF490
:1024D000001001E04FF000606E4938390860F4E008
:1024E000FFE76B48C06C00686B494839884274D973
:1024F0006748C06C006868499039884201D1202043
:1025000066E06348C06C006862493039884201D196
:1025100020205DE05E48C06C00685F493039884229
:1025200001D1202054E05A48C06C0068594930312C
:10253000884201D120204BE05548C06C00685649C4
:102540007839884201D1C01442E05148C06C00681B
:1025500050491839884201D1C01439E04C48C06C48
:1025600000684D491839884201D1C01430E048480C
:10257000C06C006847494831884201D1C01427E047
:102580004348C06C006844496039884202D14FF426
:1025900000101DE03E48C06C00683E49884202D1F0
:1025A0004FF4001014E03A48C06C00683A49884281
:1025B00002D14FF400100BE03548C06C006835497B
:1025C0006031884202D14FF4001001E04FF000600A
:1025D0003149A039C86078E0FFE72D48C06C006839
:1025E0002D499039884201D120206BE02848C06CE9
:1025F000006828493039884201D1202062E024480F
:10260000C06C006824493039884201D1202059E04B
:102610001F48C06C00681F493031884201D120201A
:1026200050E01B48C06C00681B497839884201D1D2
:10263000C01447E01648C06C006816491839884233
:1026400001D1C0143EE01248C06C0068124918392C
:10265000884201D1C01435E00D48C06C00680D49B6
:102660004831884201D1C0142CE00948C06C006890
:1026700009496039884202D14FF4001022E0044831
:10268000C06C00680349884208D14FF4001019E07B
:102690001023002040640240A06002400F48C06C3C
:1026A00000680F49884202D14FF400100AE00B483D
:1026B000C06C00680B49884202D14FF4001001E061
:1026C0004FF000600649A039886033462A4621460B
:1026D0000248FFF7A5F8FFF7EFBB0000102300202A
:1026E000A0600240A064024070B50546AC6B206853
:1026F000406820F0030021684860606D40F01000E1
:102700006065012084F851002046FEF797FF70BDF8
:1027100070B50446A56B2846FFF781F870BD70B50B
:102720000446A56B2846FFF732F970BD70B5054623
:10273000AC6BFEF7CFFA06462868006800F480709C
:10274000B0F5807F2BD02068406820F02000216801
:102750004860A06850B96068B0F5827F06D12068F3
:10276000406820F003002168486005E02068406868
:1027700020F001002168486032466421204600F0C4
:1027800047F808B1202060650020E087012084F828
:102790005100606D18B12046FEF750FF70BD204615
:1027A000FFF73CF800BFF9E770B50546AC6BFEF7E4
:1027B00091FA06462868006800F48070B0F5807FC2
:1027C00021D02068406820F020002168486032460F
:1027D0006421204600F066F818B1606D40F02000DA
:1027E00060652068406820F0030021684860002090
:1027F000E086E087012084F85100606D18B1204622
:10280000FEF71CFF70BD2046FFF7C0F800BFF9E7D8
:10281000F8B504460E4615466068B0F5827F0DD1C6
:10282000A068B0F5004F03D0A068B0F5806F05D167
:102830002068006820F04000216808606068B0F5FA
:10284000827F1FD1A068B0F5806F0DD03346002283
:1028500080212046009500F05BF808B3606D40F0E1
:10286000200060650320F8BD334600220121204688
:10287000009500F04DF898B1606D40F02000606563
:102880000320F0E73346002201212046009500F0A6
:102890003FF828B1606D40F0200060650320E2E75A
:1028A0000020E0E77CB504460D4616461648006851
:1028B0001821B0FBF1F01549B0FBF1F04FF47A713B
:1028C000484301906068B0F5827F0DD12B4600220D
:1028D00080212046009600F01BF898B1606D40F012
:1028E0002000606503207CBD00BF019800B908E0AE
:1028F0000198401E019020688068C0F3C010002835
:10290000F3D100BF0020EEE70C00002040420F0092
:102910002DE9F84F04460D4690461E46DDF82890F6
:10292000FEF7D8F9A0EB0900371AFEF7D3F9824673
:102930002C480068C0F3CB307843009045E0701C11
:10294000002842D0FEF7C6F9A0EB0A00B84200D238
:10295000A7BB2068406820F0E000216848606068FC
:10296000B0F5827F0DD1A068B0F5004F03D0A0680C
:10297000B0F5806F05D12068006820F04000216824
:102980000860A06AB0F5005F0DD100BF2068006844
:1029900020F40050216808602068006840F400506E
:1029A0002168086000BF012084F8510000BF0020AA
:1029B00084F8500000BF0320BDE8F88FFFE70098BF
:1029C00000B900270098401E0090206880682840C9
:1029D000A84201D1012000E000204045AFD10020F5
:1029E000EAE700000C000020704710B5FEF778F908
:1029F00010BD000000B593B0302107A8FDF72AFCF8
:102A0000142102A8FDF726FC00BF002001902748F2
:102A1000006840F08050254908600846006800F0D2
:102A20008050019000BF00BF00BF002001902048EF
:102A3000006840F440401E4908600846006800F401
:102A40004040019000BF00BF0220079001200A9083
:102A500010200B9002200D9000210E9108210F9163
:102A6000B4211091022111910421129107A8FEF7BF
:102A700097FB08B1FDF700FFFEF70CFA08B1FDF770
:102A8000FBFE0F20029002200390002004904FF4E0
:102A9000A05005904FF480500690052102A8FEF743
:102AA0003FFA08B1FDF7E8FE13B000BD4038024020
:102AB000007000400348006840F47000014908605D
:102AC0007047000088ED00E02DE9F84F04462068CB
:102AD000006920F44050E1680843216808612169D9
:102AE000A068084361690843E169084300902068D1
:102AF000C06849F20C618843009908432168C860A6
:102B00002068406920F44070A16908432168486149
:102B100076492068884203D075492068884203D1ED
:102B2000FEF7D6FA814602E0FEF7C2FA8146E06976
:102B3000B0F5004F6CD102206168A0FB0150034644
:102B40001920A9FB007001462A463846FDF74AFBCA
:102B50006421B0FBF1F04FEA001A02206168A0FB8B
:102B600001510B461920A9FB00712A463846FDF792
:102B700039FB834602206168A0FB015003461920FF
:102B8000A9FB00712A463846FDF72CFB6421B0FBF7
:102B9000F1F000EBC00101EB0010ABEB8000322143
:102BA00001EBC0006421B0FBF1F000F0F8000AEB8B
:102BB000400A02206168A0FB015003461920A9FBCE
:102BC000007001462A463846FDF70CFB834602207A
:102BD0006168A0FB015003461920A9FB00712A4639
:102BE0003846FDF7FFFA6421B0FBF1F000EBC001BD
:102BF00001EB0010ABEB8000322101EBC00064213F
:102C0000B0FBF1F000F007005044216888606AE0F2
:102C100004206168A0FB015003461920A9FB007045
:102C200001462A463846FDF7DDFA824604206168EF
:102C3000A0FB015003461920A9FB007001462A465B
:102C40003846FDF7CFFA6421B0FBF1F000EBC0018C
:102C500001EB0010AAEB8000322101EB001064218F
:102C6000B0FBF1F000F0F00A04206168A0FB0170F5
:102C700003461920A9FB00513A462846FDF7B2FA4F
:102C80006421B0FBF1F00AEB001A04206168A0FB9C
:102C900001510B461920A9FB00712A463846FDF761
:102CA000A1FA834604206168A0FB01500346192065
:102CB000A9FB007001462A463846FDF793FA6421C5
:102CC000B0FBF1F000EBC00101EB0010ABEB8000BA
:102CD000322101EB00106421B0FBF1F000F00F0095
:102CE000504421688860BDE8F88F00000010014062
:102CF0000014014070B506460C461546064886424B
:102D000008D12A4605A10B4800F090FC2946204630
:102D100000F012F870BD000028240020B1BEB4CE2F
:102D2000BDD3CAD5B5BDD7D6BDDACAFDCEAA3A2025
:102D3000257500001000002010B50246002302B1E6
:102D400009B9012010BD06E05B1C4FF6FF708342FD
:102D500001D30320F6E7F74800680068C0F380104D
:102D60000028F1D06FF04000F24C24682060F14858
:102D7000406B00684160EF48406B0068C260ED48FE
:102D8000406B0068EC4CA04275D9EA48406B006883
:102D9000EA4CA04201D1202068E0E648406B006880
:102DA000E54C483CA04201D120205FE0E148406B67
:102DB0000068E24C6034A04201D1202056E0DD489A
:102DC000406B0068DC4C1834A04201D120204DE05B
:102DD000D848406B0068D94C1834A04201D1C014C7
:102DE00044E0D448406B0068D34C303CA04201D151
:102DF000C0143BE0CF48406B0068D04C7834A04210
:102E000001D1C01432E0CB48406B0068CA4C30346A
:102E1000A04201D1C01429E0C648406B0068C74CED
:102E20003034A04202D14FF400101FE0C148406B83
:102E30000068C14C183CA04202D14FF4001015E0CC
:102E4000BC48406B0068BD4C9034A04202D14FF4A6
:102E500000100BE0B748406B0068B74C4834A04204
:102E600002D14FF4001001E04FF00060B24C4C3C36
:102E7000206072E1FFE7AF48406B0068AF4CA834B8
:102E8000A04275D9AB48406B0068AC4CA04201D160
:102E9000202069E0A748406B0068A74C483CA0424E
:102EA00001D1202060E0A348406B0068A34C60344F
:102EB000A04201D1202057E09E48406B00689E4C04
:102EC0001834A04201D120204EE09A48406B00689F
:102ED0009A4C1834A04201D1C01445E09548406B8B
:102EE0000068954C303CA04201D1C0143CE09148B0
:102EF000406B0068914C7834A04201D1C01433E09B
:102F00008C48406B00688C4C3034A04201D1C01416
:102F10002AE08848406B0068884C3034A04202D1D7
:102F20004FF4001020E08348406B0068824C183C4E
:102F3000A04202D14FF4001016E07E48406B0068BA
:102F40007E4C9034A04202D14FF400100CE079483E
:102F5000406B0068784C4834A04203D14FF4001015
:102F600002E005E04FF00060734C503C2060F4E05C
:102F70007048406B0068714C4834A04275D96D4868
:102F8000406B00686D4CA04201D1202068E0694888
:102F9000406B0068684C483CA04201D120205FE0B3
:102FA0006448406B0068654C6034A04201D1202029
:102FB00056E06048406B00685F4C1834A04201D175
:102FC00020204DE05B48406B00685C4C1834A04208
:102FD00001D1C01444E05748406B0068564C303C67
:102FE000A04201D1C0143BE05248406B0068534CF2
:102FF0007834A04201D1C01432E04E48406B0068E2
:103000004D4C3034A04201D1C01429E04948406BF6
:1030100000684A4C3034A04202D14FF400101FE047
:103020004448406B0068444C183CA04202D14FF425
:10303000001015E03F48406B0068404C9034A042BF
:1030400002D14FF400100BE03A48406B00683A4C54
:103050004834A04202D14FF4001001E04FF000606C
:10306000364C103CE06078E0FFE73248406B006887
:10307000324CA04201D120206DE02E48406B006808
:103080002D4C483CA04201D1202064E02948406BEF
:1030900000682A4C6034A04201D120205BE0254822
:1030A000406B0068244C1834A04201D1202052E02B
:1030B0002048406B0068214C1834A04201D1C01454
:1030C00049E01C48406B00681B4C303CA04201D1D9
:1030D000C01440E01748406B0068184C7834A04298
:1030E00001D1C01437E01348406B0068124C3034F3
:1030F000A04201D1C0142EE00E48406B00680F4C76
:103100003034A04202D14FF4001024E00948406B53
:103110000068094C183CA04202D14FF400101AE09C
:103120000448406B0068054C9034A04208D14FF42D
:10313000001010E028240020586402401060024073
:103140000C48406B00680C4CA04202D14FF40010B8
:1031500001E04FF00060094CA0600648406B006839
:10316000006840F00100034C646B2468206000207C
:10317000E8E5000028240020A0640240006002402E
:1031800038B5FB4800680068C0F30010002874D010
:1031900000BF00200090F648006800680090F448E6
:1031A00000684068009000BF00BFF148806B006875
:1031B000006820F00100EE49896B09680860EC485E
:1031C000806B00684068C0F5807085B20024E848D4
:1031D000806B0068006800F4002058B1E54CE448BA
:1031E000806B0068006820F40020E149896B096861
:1031F00008600AE0E04CDE48806B0068006840F43C
:103200000020DB49896B096808604FF48070D84959
:10321000896B09684860D648406B0068D749884286
:1032200076D9D348406B0068D549884201D1202027
:103230006AE0CF48406B0068D0494839884201D1E4
:10324000202061E0CA48406B0068CD496031884267
:1032500001D1202058E0C648406B0068C7491831AA
:10326000884201D120204FE0C148406B0068C4492A
:103270001831884202D1C01446E0D0E1BC48406B0E
:103280000068BE493039884201D1C0143CE0B848DA
:10329000406B0068BA497831884201D1C01433E0EC
:1032A000B348406B0068B5493031884201D1C01441
:1032B0002AE0AF48406B0068B1493031884202D102
:1032C0004FF4001020E0AA48406B0068AB49183961
:1032D000884202D14FF4001016E0A548406B006808
:1032E000A7499031884202D14FF400100CE0A04869
:1032F000406B0068A1494831884203D14FF4001067
:1033000002E005E04FF000609C494C39086076E12E
:103310009748406B00689A49A831884275D994480B
:10332000406B00689649884201D1202068E09048AF
:10333000406B006891494839884201D120205FE004
:103340008B48406B00688E496031884201D1202053
:1033500056E08748406B006888491831884201D19F
:1033600020204DE08248406B006885491831884232
:1033700001D1C01444E07E48406B00687F49303979
:10338000884201D1C0143BE07948406B00687C4919
:103390007831884201D1C01432E07548406B006832
:1033A00076493031884201D1C01429E07048406B21
:1033B000006873493031884202D14FF400101FE099
:1033C0006B48406B00686D491839884202D14FF450
:1033D000001015E06648406B0068694990318842EA
:1033E00002D14FF400100BE06148406B0068634964
:1033F0004831884202D14FF4001001E04FF00060E4
:103400005E4950390860FAE0FFE75948406B0068B0
:103410005B494831884275D95548406B0068584926
:10342000884201D1202069E05148406B006853492F
:103430004839884201D1202060E04D48406B006847
:103440004F496031884201D1202057E04848406B05
:1034500000684A491831884201D120204EE0444892
:10346000406B006846491831884201D1C01445E0DC
:103470003F48406B006841493039884201D1C0144F
:103480003CE03B48406B00683D497831884201D1BF
:10349000C01433E03648406B006838493031884208
:1034A00001D1C0142AE03248406B00683449303101
:1034B000884202D14FF4001020E02D48406B006894
:1034C0002E491839884202D14FF4001016E02848DE
:1034D000406B00682A499031884202D14FF40010B5
:1034E0000CE02348406B006824494831884203D1EE
:1034F0004FF4001002E005E04FF000602049103961
:10350000C8607CE01A48406B00681D49884201D1C0
:10351000202071E01648406B0068184948398842FD
:1035200001D1202068E01248406B006814496031E6
:10353000884201D120205FE00D48406B00680F49B0
:103540001831884201D1202056E00948406B0068BC
:103550000B491831884201D1C0144DE00448406B3A
:1035600000680649303988420CD1C01444E000009C
:10357000282400201002002010010020586402407E
:10358000106002402648406B00682649884201D1FD
:10359000C01431E02248406B00682349884201D1C1
:1035A000C01429E01E48406B00681E494839884213
:1035B00002D14FF400101FE01948406B00681A490F
:1035C0004839884202D14FF4001015E01448406B8E
:1035D000006814491831884202D14FF400100BE002
:1035E0000F48406B006810491831884202D14FF4EF
:1035F000001001E04FF000600A49883988600848EF
:10360000806B0068006840F001000549896B09681B
:1036100008602A4621460248FFF76CFB00BF38BD10
:103620002824002088600240886402400FB4F8B566
:103630000446002600250CB1079818B90120F8BCF3
:103640005DF814FB06E0761C4FF6FF70864201D34E
:103650000320F4E7F94800680068C0F380100028F0
:10366000F1D06FF04000F5490968086008A80090A3
:103670002046009A079901F02BF80546002000909B
:10368000681C08B90120DAE7A8B2EC49496B09685F
:103690004860EA48406B0068C460E848406B0068D6
:1036A000E749884275D9E548406B0068E54988429A
:1036B00001D1202068E0E148406B0068E0494839CA
:1036C000884201D120205FE0DC48406B0068DD4982
:1036D0006031884201D1202056E0D848406B006814
:1036E000D7491831884201D120204DE0D348406BA2
:1036F0000068D4491831884201D1C01444E0CF4851
:10370000406B0068CE493039884201D1C0143BE09B
:10371000CA48406B0068CB497831884201D1C01457
:1037200032E0C648406B0068C5493031884201D15B
:10373000C01429E0C148406B0068C249303188425A
:1037400002D14FF400101FE0BC48406B0068BC4938
:103750001839884202D14FF4001015E0B748406B89
:103760000068B8499031884202D14FF400100BE054
:10377000B248406B0068B2494831884202D14FF4E8
:10378000001001E04FF00060AD494C39086072E173
:10379000FFE7AA48406B0068AA49A831884275D95A
:1037A000A648406B0068A749884201D1202069E003
:1037B000A248406B0068A2494839884201D12020C4
:1037C00060E09E48406B00689E496031884201D1AC
:1037D000202057E09948406B006899491831884289
:1037E00001D120204EE09548406B00689549183182
:1037F000884201D1C01445E09048406B0068904970
:103800003039884201D1C0143CE08C48406B0068DC
:103810008C497831884201D1C01433E08748406B2D
:10382000006887493031884201D1C0142AE08348BA
:10383000406B006883493031884202D14FF4001058
:1038400020E07E48406B00687D491839884202D1EB
:103850004FF4001016E07948406B006879499031C8
:10386000884202D14FF400100CE07448406B0068AD
:1038700073494831884203D14FF4001002E005E05B
:103880004FF000606E4950390860F4E06B48406BBF
:1038900000686C494831884275D96848406B0068B7
:1038A0006849884201D1202068E06448406B006884
:1038B00063494839884201D120205FE05F48406B6E
:1038C000006860496031884201D1202056E05B48A1
:1038D000406B00685A491831884201D120204DE0E0
:1038E0005648406B006857491831884201D1C014CE
:1038F00044E05248406B006851493039884201D158
:10390000C0143BE04D48406B00684E497831884216
:1039100001D1C01432E04948406B00684849303159
:10392000884201D1C01429E04448406B00684549F1
:103930003031884202D14FF400101FE03F48406B05
:1039400000683F491839884202D14FF4001015E051
:103950003A48406B00683B499031884202D14FF4AD
:1039600000100BE03548406B00683549483188420B
:1039700002D14FF4001001E04FF0006031491039DE
:10398000C86078E0FFE72D48406B00682D49884209
:1039900001D120206CE02948406B00682849483953
:1039A000884201D1202063E02448406B006825490B
:1039B0006031884201D120205AE02048406B0068E5
:1039C0001F491831884201D1202051E01B48406B2B
:1039D00000681C491831884201D1C01448E01748DA
:1039E000406B006816493039884201D1C0143FE06D
:1039F0001248406B006813497831884201D1C014E5
:103A000036E00E48406B00680D493031884201D1E4
:103A1000C0142DE00948406B00680A4930318842E3
:103A200002D14FF4001023E00448406B00680449C1
:103A30001839884208D14FF4001019E028240020DA
:103A400058640240106002401148406B0068114900
:103A5000884202D14FF400100AE00D48406B006824
:103A60000D49884202D14FF4001001E04FF0006090
:103A70000849A03988600648406B0068006840F03B
:103A800001000349496B096808600020D7E5000080
:103A900028240020A0600240A064024000BFFEE78E
:103AA000F0B587B005460C4601260020059006902B
:103AB000039004901D4A1EA12248FFF7B7FD23463C
:103AC0001A4A21A11F48FFF7B1FD284600F038FC33
:103AD0000646284600F0AEFD0646012E0DD021A078
:103AE00040F27111114B23A2CDE9001027A1154816
:103AF000FFF79CFD002007B0F0BD20208DF81400DA
:103B0000200C8DF81500200A8DF81600E0B28DF813
:103B100017000023042203A905A8EF68B847034A49
:103B200021A10848FFF782FD0120E4E77C5100084D
:103B30005B2B2B2B5D257328292D3E626567696EF3
:103B40000D0A0000100000205B494E464F5D2573B2
:103B500028292D3E616464723A20307825580D0A78
:103B600000000000454E5F5732355158585F4552AE
:103B7000524F52002E2E5C4465766963655C537229
:103B8000635C7732357178782E6300005B45525262
:103B90004F525D25733A20257328292D3E5B2575EC
:103BA0005D3A2025730D0A005B2D2D2D5D257328B0
:103BB000292D3E656E640D0A000000002DE9FF41CD
:103BC00006460C4615460020039002900EB104B143
:103BD00075B916A040F217111A4B1BA2CDE90010BF
:103BE0001FA12648FFF722FD032004B0BDE8F081A5
:103BF0009F208DF80C000023042202A903A8F76877
:103C0000B8479DF8090020709DF80B009DF80A1038
:103C100040EA01202880288800902378094A18A1CA
:103C20001648FFF703FD0120DFE70000454E5F5710
:103C300032355158585F504152414D5F49535F4EA4
:103C4000554C4C005C5100082E2E5C44657669632F
:103C5000655C5372635C7732357178782E6300004F
:103C60005B4552524F525D25733A20257328292D0A
:103C70003E5B25755D3A2025730D0A00100000207B
:103C80005B494E464F5D257328292D3E4D46204900
:103C9000443A20307825582C2049443A2030782561
:103CA000580D0A007FB504460D46012600200390FA
:103CB00002902E4A2EA13348FFF7B8FC04B165B933
:103CC00031A05321294B36A2CDE900103AA12D484D
:103CD000FFF7ACFC032004B070BDD5E90001C4E9D6
:103CE0000201A06858B928A05D21204B2CA2CDE983
:103CF000001031A12348FFF799FC0320EBE7A068EF
:103D000080470646204600F07FFB064602AA03A92C
:103D10002046FFF753FF06469DF80C00EF280BD016
:103D20002CA06921114B1EA2CDE9001022A115483B
:103D3000FFF77CFC0020CEE7204600F0A7F90646FE
:103D4000012E0BD023A07121084B15A2CDE9001044
:103D500019A10C48FFF76AFC0020BCE7034A21A127
:103D60000848FFF763FC3046B5E70000F050000854
:103D70005B2B2B2B5D257328292D3E626567696EB1
:103D80000D0A000010000020454E5F573235515893
:103D9000585F504152414D5F49535F4E554C4C0066
:103DA0002E2E5C4465766963655C5372635C773282
:103DB000357178782E6300005B4552524F525D2575
:103DC000733A20257328292D3E5B25755D3A202501
:103DD000730D0A00454E5F5732355158585F4552B2
:103DE000524F52005B2D2D2D5D257328292D3E65E8
:103DF0006E640D0A000000002DE9F04387B005460F
:103E00000C4616461F46DDF838804FF001090020A9
:103E10000590069003900490234A24A12848FFF7B8
:103E200005FC2346204A27A12548CDF80080FFF74E
:103E3000FDFB284600F084FA8146284600F0FAFB94
:103E40008146B9F1010F0ED028A04FF4E771164B4F
:103E50002AA2CDE900102FA11948FFF7E7FB0020A7
:103E600007B0BDE8F08302208DF81400200C8DF817
:103E70001500200A8DF81600E0B28DF81700012316
:103E8000042203A905A8D5F80CC0E0470023424648
:103E900039463046D5F80CC0E047034A24A108480B
:103EA000FFF7C4FB0120DBE7A15100085B2B2B2BA4
:103EB0005D257328292D3E626567696E0D0A000035
:103EC000100000205B494E464F5D257328292D3E8A
:103ED000616464723A20307825582C206C656E67D6
:103EE00074683A2025750D0A00000000454E5F57A2
:103EF00032355158585F4552524F52002E2E5C4475
:103F000065766963655C5372635C77323571787886
:103F10002E6300005B4552524F525D25733A2025B7
:103F20007328292D3E5B25755D3A2025730D0A0007
:103F30005B2D2D2D5D257328292D3E656E640D0AA0
:103F4000000000002DE9F04186B005460C461646FB
:103F50001F46DDF830800020049005900290039009
:103F6000214A22A12648FFF761FB0DB106B177B9BE
:103F700024A04FF49D711C4B28A2CDE900102DA167
:103F80001F48FFF753FB032006B0BDE8F081284629
:103F900000F0D6F903208DF81000200C8DF81100E8
:103FA000200A8DF81200E0B28DF8130001230422DC
:103FB00002A904A8D5F80CC0E047002342463946C0
:103FC0003046D5F80CC0E0472346074A20A10C48EC
:103FD000CDF80080FFF72AFB034A27A10848FFF726
:103FE00025FB0120D0E70000705100085B2B2B2B34
:103FF0005D257328292D3E626567696E0D0A0000F4
:1040000010000020454E5F5732355158585F5041DF
:1040100052414D5F49535F4E554C4C002E2E5C442F
:1040200065766963655C5372635C77323571787865
:104030002E6300005B4552524F525D25733A202596
:104040007328292D3E5B25755D3A2025730D0A00E6
:104050005B494E464F5D257328292D3E616464728D
:104060003A20307825582C206C656E6774683A20A9
:1040700025750D0A000000005B2D2D2D5D25732890
:10408000292D3E656E640D0A00000000F0B58BB06E
:10409000044600200790089009900A90039004902D
:1040A000059006904B208DF81C0000230D2203A9DB
:1040B00007A8E568A8479DF81100010600204FF009
:1040C0007F43004019409DF8122000234FF47F06E3
:1040D0001B4006EA0242184341EA02059DF813100C
:1040E0000B02002136120940334040EA01021D4311
:1040F0009DF8140000231B4042EA030145EA000337
:104100009DF815000022120642EA1022360406EA43
:104110000060014318469DF816300022120442EA5E
:104120001345370A07EA0342034641EA02001946EB
:104130009DF8172000231B0243EA1263360C06EA9F
:1041400002250B4640EA05011A469DF81800002397
:104150001B4001431A43C4E90012D4E90001054A97
:10416000CDE9000104A10C48FFF760FA01200BB073
:10417000F0BD0000FC5000085B494E464F5D2573C2
:1041800028292D3E556E697175652049443A2030C5
:1041900078256C6C580D0A00100000202DE9FC41B8
:1041A00007460D4616464FF0010800243B4A3CA145
:1041B0004048FFF73BFA0FB105B16EB93EA040F29F
:1041C0003B21364B42A2CDE9001047A13948FFF709
:1041D0002DFA0320BDE8FC81002404E0AA20285524
:1041E00000203055641CB4F5805FF7D34FF4805045
:1041F00033462A4600210090384600F05DF980469B
:10420000B8F1010F0CD02CA04FF41271234B30A247
:10421000CDE9001034A12748FFF708FA0320D9E7B9
:104220004FF4805033462A46002100903846FFF76D
:1042300089FE8046B8F1010F0CD01FA040F24F213B
:10424000164B23A2CDE9001027A11A48FFF7EEF97B
:104250000320BFE7002411E0285D315D88420CD0C7
:1042600028A040F257210D4B19A2CDE900101EA144
:104270001048FFF7DBF90020ACE7641CB4F5805F61
:10428000EAD3064A23A10B48FFF7D0F9034A26A137
:104290000848FFF7CBF901209CE70000C051000857
:1042A0005B2B2B2B5D257328292D3E626567696E7C
:1042B0000D0A000010000020454E5F57323551585E
:1042C000585F504152414D5F49535F4E554C4C0031
:1042D0002E2E5C4465766963655C5372635C77324D
:1042E000357178782E6300005B4552524F525D2540
:1042F000733A20257328292D3E5B25755D3A2025CC
:10430000730D0A00454E5F5732355158585F45527C
:10431000524F52005B2D2D2D5D257328292D3E65B2
:104320006E640D0A000000005B494E464F5D257328
:1043300028292D3E74657374206F6B210D0A0000CF
:104340007FB50446002500200390029005208DF8DB
:104350000C0000BF0023022202A903A8E668B047B0
:104360006D1C0E4885420CD30DA0AA21114B12A240
:10437000CDE9001016A11D48FFF758F9022004B03E
:1043800070BD9DF8090000F001000028E2D1094A43
:1043900017A11648FFF74AF90120F0E7FFFF0F00C9
:1043A000454E5F5732355158585F54494D454F552A
:1043B00054000000125100082E2E5C44657669639B
:1043C000655C5372635C7732357178782E630000D8
:1043D0005B4552524F525D25733A20257328292D93
:1043E0003E5B25755D3A2025730D0A001000002004
:1043F0005B494E464F5D257328292D3E72656164E9
:1044000079206F6B0D0A00007FB5044600200390F1
:10441000029064B90DA0FB21124B13A2CDE900104C
:1044200017A11E48FFF702F9032004B070BDAB20AE
:1044300003900023012202A903A8E568A847094ABE
:1044400017A11648FFF7F2F80120EEE7454E5F5737
:1044500032355158585F504152414D5F49535F4E7C
:10446000554C4C004E5100082E2E5C446576696315
:10447000655C5372635C7732357178782E63000027
:104480005B4552524F525D25733A20257328292DE2
:104490003E5B25755D3A2025730D0A001000002053
:1044A0005B494E464F5D257328292D3E77616B652C
:1044B0007570206F6B0D0A002DE9FC5F80460C467D
:1044C00015461E46DDF830904FF0000A00272C4AB2
:1044D0002CA13148FFF7AAF8B8F1000F01D005B1BF
:1044E0006EB92EA040F2FD11254B32A2CDE900108D
:1044F00036A12948FFF79AF80320BDE8FC9F6FF327
:104500000B044FEA192A09F0FF0723461C4A36A17B
:104510002148CDE900A7FFF789F84FF0000B17E01D
:10452000C4F30B0018B921464046FFF7B9FA4FF41F
:10453000807033462A46214600904046FFF75CFCD7
:1045400004F5807405F5807506F580760BF1010B96
:10455000D345E5D36FB1C4F30B0018B921464046EB
:10456000FFF79EFA33462A46214640460097FFF75A
:1045700043FC034A2AA10848FFF758F80120BCE78A
:10458000B35100085B2B2B2B5D257328292D3E6230
:104590006567696E0D0A000010000020454E5F57E8
:1045A00032355158585F504152414D5F49535F4E2B
:1045B000554C4C002E2E5C4465766963655C5372E5
:1045C000635C7732357178782E6300005B45525218
:1045D0004F525D25733A20257328292D3E5B2575A2
:1045E0005D3A2025730D0A005B494E464F5D2573E9
:1045F00028292D3E616464723A20307825582C2099
:10460000706167655F6E756D3A2025752C2070614D
:1046100067655F6D6F64653A2025750D0A000000BF
:104620005B2D2D2D5D257328292D3E656E640D0AA9
:10463000000000007CB50446002001900090062098
:104640008DF8040000230122694601A8E568A84707
:1046500005208DF8040000230222694601A8E568C0
:10466000A8479DF8010000F0020030B1064A07A1FA
:104670000E48FEF7DBFF01207CBD034A0CA10B486E
:10468000FEF7D4FF0020F7E7285100085B494E46AB
:104690004F5D257328292D3E777269746520656EFC
:1046A00061626C65206F6B0D0A0000001000002035
:1046B0005B494E464F5D257328292D3E77726974FC
:1046C0006520656E61626C65206661696C0D0A002B
:1046D00037B514460846064B6A46214600F0F8F8FE
:1046E00004466946002000F08AFC20463EBD0000DA
:1046F000FF4F000802480068C0F302207047000026
:104700000CED00E010B5002804DB0A07130E054A83
:10471000135406E00A07140E034A00F00F031B1F90
:10472000D45410BD00E400E018ED00E002E008C839
:10473000121F08C1002AFAD170477047002001E01B
:1047400001C1121F002AFBD1704700002DE9FF5F55
:1047500082B00021DDE90430020DDDF840B00343F2
:1047600018D044F61050A2F2FF32424315141198AB
:1047700001281FD0A5EB0B00401C5FEA000A4FF098
:1047800000064E4FDFF83891B046504615D5CAF1B5
:10479000000413E0119801244AA3012801D16FEA13
:1047A0000B010298119AC0E90031C0E9024206B03B
:1047B000BDE8F09FCBF10000DFE704460021404A4E
:1047C000491842EB0450CDE9001012E0E00707D091
:1047D00032463B4640464946FBF723FE8046894623
:1047E00032463B4610461946FBF71BFE06460F466F
:1047F0006410002CEAD1DDE90401DDE90023BAF1FF
:10480000000F06DAFBF70DFE42464B46FBF709FEAA
:1048100005E0FBF778FE42464B46FBF774FE044684
:104820000E460022284BFBF7F5FE03D84FF0FF3071
:10483000014607E00022254B20463146FBF74AFDA2
:10484000FBF7D0FE102409E0002C0ADB0A2200232B
:10485000FBF7C8FC039B30321A55641E50EA010274
:10486000F2D1641C039AC4F111031444119A012A71
:1048700003D0012208430DD10AE0084304D00020F0
:104880004FF0110B119072E7A3EB0B056D1E0DE0BD
:104890005B4504DD4FF0000205F1010504E003DA99
:1048A0004FF00002A5F10105002AECD00298119901
:1048B000C0E90231C0E9004579E70000000014407A
:1048C0000000F03F300000000000F0430000E03F37
:1048D0002DE9FF4F95B09B468946064600250FE21D
:1048E000252877D100242746F84A0121059400E0C5
:1048F000044316F8013F203B01FA03F01042F7D1C0
:1049000030782A2811D06FF02F033078A0F13002D0
:10491000092A16D8059A44F0020402EB820203EB3E
:1049200042021044761C0590EFE759F8042B0592DB
:10493000002A03DA504244F40054059044F0020483
:10494000761C30782E2816D116F8010F44F0040496
:104950002A280DD06FF02F023078A0F13003092BF8
:1049600009D807EB870302EB4303C718761CF3E76C
:1049700059F8047B761C30786C280FD006DC4C2864
:1049800017D068280DD06A2814D104E0742810D0FC
:104990007A280FD10DE044F400140AE044F48014A6
:1049A00001E044F440147278824202D104F580148C
:1049B000761C761C307866280BD013DC582877D00C
:1049C00009DC002875D04528F6D04628F4D04728C1
:1049D0001AD19DE118E0632835D0642879D0652884
:1049E00012D195E1702873D008DC6728F1D06928CE
:1049F0006FD06E280DD06F2806D1B5E073282CD06B
:104A0000752875D0782874D05A46179990476D1C30
:104A100075E1C4F30250022809D003280DD0D9F85B
:104A2000001004280DD00D6009F1040967E1D9F8E0
:104A30000010EA17C1E90052F6E7D9F800100D801E
:104A4000F2E70D70F0E719F8041B8DF80010002054
:104A50008DF80100EA46012003E059F804AB4FF05D
:104A6000FF3061074FF0000102D40DE008F10101B1
:104A70008846B9420FDA8045F8DB1AF80810002999
:104A8000F4D108E008F1010188468142FADB1AF806
:104A900008100029F6D105985B46A0EB08072146CF
:104AA0003846179A00F094FA284400EB080507E00E
:104AB0004DE029E10DE01AF8010B5A46179990478D
:104AC000B8F10108F7D25B4621463846179A13E140
:104AD00042E00A220092C4F302524FF0000A022A76
:104AE00008D059F804CB032A4FEAEC710AD00DE044
:104AF00029E02AE009F1070121F00702F2E802C1EA
:104B0000914609E00FFA8CFC4FEAEC71042A03D1BC
:104B10004FFA8CFC4FEAEC71002907DA0A460021B3
:104B2000DCF1000C61EB02012D2202E0220504D52C
:104B30002B228DF80420012203E0E20701D020227D
:104B4000F7E7904659E00A2102E010220DE010211B
:104B50004FF0000A00910BE010224FF0000A44F0E1
:104B600004040827009203E008224FF0000A009294
:104B7000C4F30252022A05D059F804CB0021032ABB
:104B800008D009E009F1070121F00702F2E802C1AB
:104B9000914605E01FFA8CFC042A01D10CF0FF0CB1
:104BA0004FF00008220728D5702806D0009B83F01C
:104BB000100353EA0A0305D00EE040228DF80420CA
:104BC000012208E05CEA010206D030228DF80420C0
:104BD0008DF8050002229046009B83F0080353EAFB
:104BE0000A030AD15CEA010201D1620705D530222D
:104BF0008DF804204FF001087F1E582804D034A0FF
:104C000003900EA802900DE036A0F9E753466046E7
:104C1000009AFBF7E7FA84460398825C0298401EEC
:104C2000029002705CEA0100F0D1029806A9081A0D
:104C300000F1200A600702D524F4803400E0012747
:104C4000574502DDA7EB0A0000E0002000EB0A0157
:104C5000009005984144401A0590E00306D45B4655
:104C60002146179A059800F0B3F90544002706E09D
:104C700001A85A46C05D179990476D1C7F1C474597
:104C8000F6DBE0030CD55B462146179A059800F049
:104C90009FF9054404E030205A46179990476D1C4F
:104CA0000099481E00900029F5DC08E0029802995E
:104CB0005A460078491C0291179990476D1CBAF129
:104CC0000001AAF1010AF1DC65E1000009280100F8
:104CD0003031323334353637383961626364656672
:104CE0000000000030313233343536373839414234
:104CF000434445460000000000F058F90544761C86
:104D0000307800287FF4ECAD19B02846BDE8F08F6C
:104D1000620700D4062709F1070222F0070CFCE81D
:104D20000223E14603F000485FEA080C02D00FF2CC
:104D3000702C0DE05FEA045C02D50FF2682C07E0EE
:104D40005FEAC47C02D00FF2602C01E0AFF2700C7D
:104D50004FF0FF3823F00043CDF850C065280CD049
:104D600006DC452809D046281DD047283DD13DE026
:104D7000662818D067287ED138E00021112F01DB8A
:104D8000112000E0781CCDE9000106A90EA8FFF76C
:104D9000DDFCDDE90F010E9A03910021009207F17D
:104DA000010A04914DE04FF000400097CDE9011059
:104DB00006A90EA8FFF7CAFCDDE90F0203920E9BBD
:104DC00011990022DDF80CA00093049211B9791C0E
:104DD00000EB010AB7EB0A0004D4C0F1FF3007F181
:104DE000010A0490AAEB0700019044E0012F00DAC9
:104DF00001270021112F01DD112000E03846CDE907
:104E0000000106A90EA8FFF7A1FCDDE90F010E9A2B
:104E10000391002104910092BA4621070CD4039912
:104E2000514500DA8A46BAF1010F05DD009AAAF170
:104E30000101515C302908D0B84202DA10F1040FA8
:104E400006DA0121CDE9011015E0AAF10101E9E737
:104E5000002805DC049901440491AAEB000102E05A
:104E6000411C514500DD8A460499401A401C0190BE
:104E70004FF000400290200704D40198504501DB18
:104E8000CDF8048000208DF84F0002980DF14F07F7
:104E9000B0F1004F25D02B200E9002984FF0020861
:104EA00000280CDA404202902D200E9007E00A21E3
:104EB0000298FBF7DAF93031029007F8011DB8F1DA
:104EC0000001A8F10108F2DC02980028EFD1791E58
:104ED0000E980870307800F0200040F0450007F888
:104EE000020D12A8C01B00F107081498007800B149
:104EF000012000EB0A01019801EBE07105984144A3
:104F0000401A401E0590E00306D45B462146179ADE
:104F1000059800F05DF805441498007818B15A46D9
:104F2000179990476D1CE00324D55B462146179ADC
:104F3000059800F04DF805441CE00498002807DBB4
:104F4000DDE90301884203DD0098405C179901E028
:104F5000179930205A469047049805F10105401CE6
:104F600004900198401E019004D12E205A461799B2
:104F700090476D1CBAF10001AAF1010ADDDC05E0E1
:104F800017F8010B5A46179990476D1CB8F10001AC
:104F9000A8F10108F4DC5B462146179A0598ABE6B8
:104FA0002D0000002B000000200000002DE9F04142
:104FB000044600251E461746880404D405E03946F9
:104FC0002020B0476D1C641EF9D52846BDE8F0814D
:104FD0002DE9F041044600251E469046C80301D540
:104FE000302700E02027880404D505E041463846F4
:104FF000B0476D1C641EF9D52846BDE8F0810A68EB
:10500000531C0B601070704786B04FF0006024494D
:105010000860FBF771FEFDF7EDFCFCF743FEFCF7C3
:105020002DFEFCF717FFFCF7EBFE0020029003902B
:10503000049005901B4903C9CDE90001694602A807
:10504000FEF730FE002003E02A21174A1154401CCD
:10505000B0F5805FF8D34FF48050144B124A1621FC
:10506000009002A8FFF728FA4FF480500F4B0E4A29
:105070000021009002A8FEF765FF0C4A0A4902A829
:10508000FFF78CF80BE04FF400610948FBF712FEC4
:105090006420FBF7F3FC07A10A48FEF7C7FAF2E722
:1050A00008ED00E0C8500008100300201013002095
:1050B000001C024048656C6C6F20576F726C640D69
:1050C0000A000000100000200D1C0008111C000840
:1050D0000006101600061016000000000000000078
:1050E000010203040607080900000000010203048E
:1050F0005732355158585F496E69740057323551EF
:1051000058585F526561645F556E697175655F4996
:1051100044005732355158585F576169745F466F84
:10512000725F5265616479005732355158585F5744
:10513000726974655F456E61626C65005732355106
:1051400058585F506F7765725F446F776E005732C3
:10515000355158585F57616B65757000573235513E
:1051600058585F4765745F4A454445435F4944006A
:105170005732355158585F52656164005732355186
:1051800058585F45726173655F4F6E655F53656325
:10519000746F72005732355158585F4572617365AC
:1051A000005732355158585F506167655F577269D3
:1051B0007465005732355158585F577269746500ED
:1051C0005732355158585F5465737400EC510008DC
:1051D00000000020100000002C470008FC510008CF
:1051E00010000020202900003C47000800000000BB
:0C51F00010000000010000000024F4008A
:04000005080001AD41
:00000001FF
