:020000040800F2
:1000000018080020C10100084F1500085514000809
:100010004D15000847070008DD1D0008000000001E
:100020000000000000000000000000005315000860
:10003000E3070008000000005115000855150008EE
:10004000DB010008DB010008DB010008DB01000820
:10005000DB010008DB010008DB010008DB01000810
:10006000DB010008DB010008DB010008DB01000800
:10007000DB010008DB010008DB010008DB010008F0
:10008000DB010008DB010008DB010008DB010008E0
:10009000DB010008DB010008DB010008DB010008D0
:1000A000DB010008DB010008DB010008DB010008C0
:1000B000DB010008DB010008DB010008DB010008B0
:1000C000DB010008DB010008DB010008DB010008A0
:1000D000DB0100086D190008DB010008DB010008E6
:1000E000DB010008DB010008DB010008DB01000880
:1000F000DB010008DB010008DB010008DB01000870
:10010000DB010008DB010008DB010008DB0100085F
:10011000DB010008DB010008DB010008DB0100084F
:10012000DB010008DB010008DB010008DB0100083F
:10013000DB010008DB010008DB010008DB0100082F
:10014000DB010008DB010008DB010008DB0100081F
:10015000DB010008DB010008DB010008DB0100080F
:10016000DB010008DB010008DB010008DB010008FF
:10017000DB010008DB010008DB01000800000000D3
:10018000DB010008DB010008DB010008DB010008DF
:10019000DB010008DB010008DB010008DB010008CF
:1001A000DB010008DB010008DB010008DFF80CD0F0
:1001B00000F048FA004800473927000818080020D6
:1001C0000648804706480047FEE7FEE7FEE7FEE7F1
:1001D000FEE7FEE7FEE7FEE7FEE7FEE7F5150008AF
:1001E000AD0100082DE9F05F0546002092469B46D0
:1001F00088460646814640241BE02846414647463D
:10020000224600F057F853465A46C01A914110D37F
:1002100011461846224600F03EF82D1A67EB0108F9
:100220004F4622460120002100F035F817EB000967
:100230004E41201EA4F10104DFDC484631462A4627
:100240004346BDE8F09FD2B201E000F8012B491E01
:10025000FBD270470022F6E710B513460A46044663
:100260001946FFF7F0FF204610BD30B50B4601469A
:1002700000202022012409E021FA02F59D4205D345
:1002800003FA02F5491B04FA02F52844151EA2F1EF
:100290000102F1DC30BD202A04DB203A00FA02F131
:1002A000002070479140C2F1200320FA03F3194364
:1002B00090407047202A04DB203A21FA02F0002106
:1002C000704721FA02F3D040C2F120029140084366
:1002D000194670472DE9FE4F804681EA0300C00FA2
:1002E0000C46009021F0004123F00045B8EB0200DD
:1002F000A94105D24046214690461C460B4602467F
:1003000023F00040104347D0270DC7F30A00C3F382
:100310000A510290401A019040286BDAC3F313008F
:1003200040F4801B0098924620B10023D2EB030AD0
:1003300063EB0B0B01985946C0F140025046FFF7A2
:10034000AAFF06460D4650465946019A00F08CF920
:1003500010EB08006141002487EA115284EAE77338
:100360001A4340D0009A62B3019A012A4FEA075219
:1003700015DC001B61EB02014FF0004202EA07525C
:10038000CDE90042001C41F5801132462B4600F0B9
:100390008CF903B0BDE8F08F40462146F9E7001B19
:1003A00061EB0201001C41F5801300185B4120182D
:1003B000A2F5001747EB030140EAD570B6196D416D
:1003C00011E06D084FEA360645EAC0754FEA07525C
:1003D000001B61EB0201001C41F5801149084FEA46
:1003E00030000019514132462B4603B0BDE8F04FB2
:1003F00000F04CB90098012240000023D0EB02022B
:1004000063EBE073009821464FEAE074B8EB00001C
:1004100061EB0401E9E783F000435BE781F0004111
:1004200058E72DE9FE4F81EA030404F0004421F06F
:10043000004100944FF0000B23F0004350EA010408
:100440005ED052EA03045BD0C3F30A54C1F30A55E9
:100450002C44A4F2F3340194A0FB0254C1F3130121
:1004600041F48011C3F3130343F4801301FB0244EE
:1004700000FB034E840A970A44EA815447EA8357F3
:10048000A4FB076802958D0A05FB07854FEA932CAC
:1004900004FB0C542705029D4FEA065847EA16371D
:1004A000B5EB08056EEB070C870E920E47EA811735
:1004B00042EA8312A7FB0201B6EB0B0164EB0004D6
:1004C0002B0D43EA0C335E1844EB1C50DA465146C0
:1004D000E7FB0201C5F313044FEA0B3343EA14535D
:1004E0004FEA0432019C43EA0603A4F10C0402948F
:1004F000009CCDE900B400F0D8F803B0BDE8F08F5F
:1005000000200146F9E72DE9F04D81EA030404F0EB
:10051000004B21F0004514464FF0000A23F0004143
:1005200050EA050220D054EA01021DD0C5F30A5753
:100530000246C5F31303C1F31300C1F30A5640F496
:10054000801543F48013A7EB0608101BD64608F26B
:10055000FD3873EB050002D308F1010801E09218A1
:100560005B41B8F1000F03DA00200146BDE8F08DD1
:1005700000204FF48011064684460EE0171B73EBF3
:10058000050705D3121B63EB050306434CEA010C78
:1005900049084FEA300092185B4150EA0107EDD15B
:1005A00052EA030012D082EA040083EA05010843FC
:1005B00005D0101BAB4106D20122002306E0002229
:1005C0004FF0004302E06FF0010253101AEB0600F7
:1005D0004CEB085110EB0A0041EB0B01BDE8F04D6C
:1005E00000F054B8C1F30A52C1F3130140F2FF33D3
:1005F00041F480119A4202DA00200146704740F22D
:1006000033439A42A2F2334202DC5242FFF752BE17
:10061000FFF741BE30B5041E71F1000404DB4FF05A
:100620000044404264EB0101141E73F1000405DB39
:100630001C464FF00043524263EB0403994208BF4B
:10064000904230BD064C074D06E0E06840F00103E3
:1006500094E8070098471034AC42F6D3FFF7AAFDA0
:10066000B4270008D4270008202A06DBCB17203A3D
:1006700041FA02F043EAE07306E041FA02F3D040A7
:10068000C2F12002914008431946704710B5141E6C
:1006900073F1000408DA401C41F1000192185B413B
:1006A0001A4301D120F0010010BD2DE9F04D924612
:1006B0009B4611B1B1FA81F202E0B0FA80F2203229
:1006C0009046FFF7E8FD04460F4640EA0A0041EA7B
:1006D0000B0153465A46084313D0114653EA010012
:1006E00019D0C8F140025046FFF7E4FD05460E461A
:1006F000504659464246FFF7CEFD084305D001203B
:1007000004E020463946BDE8F08D0020054346EA66
:10071000E0762C4337430A986305E40AA0EB08000F
:100720000022FD0A44EA47540A3002D5002001465F
:10073000E9E7010510196941DDE90845001969413A
:10074000BDE8F04DA2E7FEE701681823CAB2103AEF
:10075000B2FBF3F2054B6FF30901032A9B5CC365FF
:1007600000D9091D816508467047000094270008DC
:1007700010B5014600208B698A6A4FF0C07453B1EE
:10078000B3F5005F15D072B1012A0CD0022A0AD04D
:10079000032A09D104E01AB1012A06D0022A03D1A2
:1007A000C96AC90100D5012010BDC96AA142FAD0A9
:1007B00010BD002AF7D0012AF2D0022AF3D0032A72
:1007C000F3D010BD10B5046863608368402B0368E4
:1007D00003D099600068C26010BD9A600068C16073
:1007E00010BD704772B6FEE72DE9F04104468068FF
:1007F0000025069E80280ED094F8340001280FD0E2
:10080000012084F8340094F8350001280AD002252C
:100810002846BDE8F0814FF4807060650125F7E758
:100820000220F6E7022084F835002068076847F4C4
:10083000802707602068036133462046FFF7C2FF28
:100840002068016841F001010160E1E72DE9F04114
:10085000044600F09FF906465CB1022084F835009A
:10086000002584F834502068016821F001010160FE
:100870000DE00120BDE8F08100F08CF9801B052817
:1008800005D920206065032084F83500F2E7206850
:100890000068C007F0D12268116820480140D4E9FF
:1008A00001031843D4E903363343184363691843FB
:1008B000A3691843E3691843236A18430843616A2C
:1008C000042903D1D4E90B131943084310602068AD
:1008D0004069666A20F0070130460E43012704286C
:1008E0000CD1A06A0643E06A40B12046FFF740FF02
:1008F00020B14020606584F83570BAE72068466111
:100900002046FFF721FF94F85C203F219140816051
:10091000656584F835700020ACE700003F8010F07A
:1009200070B5044600F036F90546601C02D0044854
:100930000078044400F02EF9401BA042FAD370BDA9
:10094000000000202DE9F84FDFF8F8A10022012473
:1009500003254FF00F090AF1040BAAF1040E00BFA2
:100960000B6804FA02F63340B34270D10F7907F0F6
:100970000307012F01D0022F16D187684FEA4208E2
:1009800005FA08FC27EA0C07D1F80CC00CFA08FCA1
:100990004CEA070CC0F808C04768B7430E79C6F3A5
:1009A000001696403E4346600E79F643B6070AD0DD
:1009B000C7684FEA420C05FA0CF6B7438E6806FA90
:1009C0000CF63E43C6600E7906F00306022E10D1E7
:1009D000D60800EB8608D8F8206057074FEAD76C96
:1009E00009FA0CF7BE430F6907FA0CF73743C8F84A
:1009F000207006684FEA420C05FA0CF7BE430F79E7
:100A000007F0030707FA0CF7374307604E6816F440
:100A1000403F1CD04C4E376847F4804737603668FB
:100A200022F0030706F480460096484E07EB060CBA
:100A3000DCF8086897073F0F09FA07F826EA080666
:100A4000DFF80C81404503D14FF0000841E072E02F
:100A5000DFF80081404502D14FF0010839E0DFF8AE
:100A6000F880404502D14FF0020832E0DFF8EC8018
:100A7000404502D14FF003082BE0DFF8E480404509
:100A800002D14FF0040824E0DFF8D880404502D1BD
:100A90004FF005081DE0DFF8D080404502D14FF04F
:100AA000060816E0DFF8C480404502D14FF0070881
:100AB0000FE0DFF8BC80404502D14FF0080808E0A5
:100AC000DFF8B080404502D14FF0090801E04FF057
:100AD0000A0808FA07F848EA0608CCF80888DAF89D
:100AE00000605746D1F804C09E435FEACC2C00D585
:100AF0001E433E60DBF800605F46D1F804C09E43B1
:100B00005FEA8C2C00D51E433E60DEF8006077461D
:100B1000D1F804C09E435FEA8C3C00D51E433E6082
:100B2000084F083F3E68D1F804C09E435FEACC3CC2
:100B300000D51E433E60521C102AFFF411AFBDE8E1
:100B4000F88F0000083C014044380240003001406A
:100B5000000002400004024000080240000C024075
:100B6000001002400014024000180240001C024025
:100B70000020024000240240426921EA02030A40A8
:100B800043EA0241816170470AB1816170470904FB
:100B9000FBE700000148806870470000000000206B
:100BA000024881680278114481607047000000208B
:100BB0000B4810B5016841F400710160016841F40F
:100BC00080610160016841F480710160032000F0E0
:100BD00071F8012000F006F800F024F8002010BDA4
:100BE000003C024070B50D4D04464FF47A712878F0
:100BF000B1FBF0F00A490968B1FBF0F000F046FBE8
:100C000048B9102C07D200222146501E00F032F8BD
:100C100000206C6070BD012070BD0000000000204D
:100C20000C0000200B4882B0016841F48041016053
:100C3000006800F4804000900648001F016841F001
:100C400080510160006800F080500090062002B0E2
:100C500000F030B844380240002809DB00F01F02E1
:100C6000012191404009800000F1E020C0F800110E
:100C700070470000F0B40E4B1B680C46C3F3022310
:100C8000C3F10705042D00D90425191D072901D238
:100C9000002300E0DB1E012606FA05F1491E214073
:100CA00099409E40761E16403143F0BC01F0BAB820
:100CB0000CED00E0064900F0070208684FF6FF035C
:100CC000184040EA0220034A1043086070470000C1
:100CD0000CED00E00000FA052DE9F8431748016823
:100CE00041F0805101600068154F00F080500126EE
:100CF00000903E64FFF74EFF05464FF47A78114CA2
:100D000005E000BFFFF746FF401B40450DD8606877
:100D1000C003F7D57E64FFF73DFF0546464607E072
:100D2000FFF738FF401BB04202D90320BDE8F8832B
:100D300060688003F4D50020F8E7000040380240E6
:100D400000000E42007000402DE9F0470E460500FD
:100D500065D0DFF81481D8F80000F7B200F00F007A
:100D6000B04207D288F80070D8F8000000F00F00F9
:100D7000B04254D128683D4C810712D5400703D5B5
:100D8000206840F4E05020602878000703D52068F0
:100D900040F4604020602068A96820F0F00008431B
:100DA00020602878C0072DD03049686808390128AC
:100DB00012D0022813D0032811D00968890700290E
:100DC0002DDA216821F0030101432160FFF7E2FEE3
:100DD000814641F2883A0EE009688903EFE7096825
:100DE0008901ECE7FFF7D6FEA0EB0901514502D9D6
:100DF0000320BDE8F0872068696800F00C00B0EBC4
:100E0000810FEFD1D8F80010404601F00F01B14238
:100E100007D90770006800F00F00B04201D0012030
:100E2000E7E72878400705D52068E96820F4E05016
:100E3000084320602878000706D52068296920F437
:100E4000604040EAC100206000F038F82168084A9C
:100E5000C1F30311515CC8400649086006480068A8
:100E6000FFF7C0FE0020C4E7003C02400838024003
:100E70009C2700080C0000200400002004480549BD
:100E800000680968044AC1F38221515CC840704778
:100E90000C00002008380240AC270008044805492F
:100EA00000680968044AC1F34231515CC840704788
:100EB0000C00002008380240AC270008154810B587
:100EC000006810F00C02144813D01449042A0FD003
:100ED000082A0ED10F4C241F2268236802F03F021B
:100EE0005B0207D52068C0F38810A0FB010106E073
:100EF000084610BD2168C1F38811A1FB0001002341
:100F0000FFF770F92168C1F30141491C4900B0FBAA
:100F1000F1F010BD083802400024F40040787D0153
:100F20002DE9F84F04006ED02078DFF84C93C0070D
:100F3000A9F104054AD009F104000168C1F3810157
:100F4000012908D00068C0F3810002280AD1D9F82D
:100F50000000400206D52868800337D56068002865
:100F6000E1D033E06068B0F5803F10D0B0F5A02F3D
:100F7000286810D020F480302860286820F4802071
:100F800028606068A8B1FFF705FE06460DE02868F6
:100F900040F48030F4E740F480202860F7E700BF99
:100FA000FFF7F8FD801B642873D828688003F7D505
:100FB0000CE0FFF7EFFD064605E000BFFFF7EAFD96
:100FC000801B6428F0D828688003F7D42078DFF8E5
:100FD000AC8280074FF0000A3ED5A748001D01688B
:100FE00011F00C0F08D00068C0F3810002280BD16B
:100FF000D9F80000400207D42868800716D5E068B9
:10100000012800D112E033E1E068B8B10120C8F84E
:101010000000FFF7BFFD064605E000BFFFF7BAFD81
:10102000801B0228C0D828688007F7D52868216966
:1010300020F0F80040EAC10028600DE0C8F800A0E8
:10104000FFF7A8FD064604E0FFF7A4FD801B022879
:101050001FD828688007F7D42078000722D5864F4C
:1010600087486169703771B101210160FFF792FD16
:10107000064604E0FFF78EFD801B022809D8386879
:101080008007F7D50EE0C0F800A0FFF783FD064605
:1010900005E082E0FFF77EFD801B02287DD83868DE
:1010A0008007F7D42078400768D5DFF8CCB1002757
:1010B0000BF13C0BDBF80000C0000BD4DBF8001098
:1010C00041F08051CBF80010DBF80000012700F060
:1010D000805000906B4E3068C00510D4306840F4EA
:1010E00080703060FFF756FD009005E0FFF752FD7D
:1010F0000099401A022850D83068C005F6D55E4ED7
:10110000A0686C3601280FD00528306810D020F078
:1011100001003060306820F004003060A068B8B191
:10112000FFF738FD00900FE0306840F00100F4E771
:1011300040F004003060F7E7FFF72CFD0099411AFA
:1011400041F28830814266D830688007F4D50EE0DD
:10115000FFF720FD009007E0FFF71CFD0099411A02
:1011600041F28830814256D830688007F4D42FB1DC
:10117000DBF8001021F08051CBF80010A069C8B353
:101180003D49091D0968C1F3810102294AD002289D
:10119000504607D0C8F8600000E03CE0FFF7FAFCDA
:1011A00004463BE04746C8F86000FFF7F3FC0646FC
:1011B00005E000BFFFF7EEFC801B02282BD8286853
:1011C0008001F7D4D4E907010843A16A2E4A4908EF
:1011D00002EB0141626A41EA8211084394F82C1043
:1011E00040EA0161C9F8001001203866FFF7D2FC1F
:1011F000044606E03EE000BFFFF7CCFC001B0228DF
:1012000009D828688001F7D534E000BFFFF7C2FC99
:10121000001B022802D90320BDE8F88F286880014E
:10122000F4D427E00128F7D0D9F80000E26900F4EF
:10123000800191421CD1226A00F03F01914217D1F6
:1012400047F6C071626A0140B1EB821F10D1A26AF9
:101250004FF0FF3300F4403103EB5202B1EB024F89
:1012600006D194F82C1000F07060B0EB016F01D043
:101270000120D1E70020CFE70438024000004742B8
:10128000800E4742007000400000FFFF10B5401E76
:10129000B0F1807F01D3012010BD4FF0E0246061E8
:1012A0000F21601700F0BEFD0020A0610720206123
:1012B000002010BD70B5040004D094F83D00002556
:1012C00010B106E0012070BD84F83C50204600F0CB
:1012D00023F8242084F83D002068C16821F40051DF
:1012E000C160204600F08EF92068016921F4904128
:1012F00001612068416921F02A0141612068C168CB
:1013000041F40051C1602564202084F83D0084F838
:101310003E00002070BD00002DE9F04186B0064679
:10132000142101A8FEF796FF4549306888427DD117
:1013300044480024016841F010010160006800F099
:10134000100000903F481438016841F0010101602D
:10135000006801A900F0010000904FF4C060019006
:101360000220CDE9020403200490072005903648AE
:10137000FFF7E8FA364D35484FF00067E5E8020719
:1013800040204FF48068A5E81101314845F8144920
:10139000AC61EC612C626C62FFF758FA08B1FFF7A0
:1013A00021FA7563AE632A4D284860357838286085
:1013B000C5E90174C5E903486C61AC61EC612C625C
:1013C00028466C62FFF742FA08B1FFF70BFAB563E3
:1013D000002211462520AE63FFF74CFC2520FFF7C5
:1013E0003BFC1B4C443C616B20680968001D886015
:1013F000A16B20680968001D88604FF48070009020
:101400002168A4F58073A3F58072091DA06BFFF716
:10141000EBF92068416941F0800141612068416930
:1014200041F0400141612068016800E005E0416849
:101430000091C16841F01001C16006B0BDE8F081C3
:10144000001001404438024000000240B8640240ED
:1014500058030020FEE70000054808B5016841F484
:1014600080010160006800F48000009008BD000069
:101470003038024070B586B014216846FEF7EAFEA7
:1014800016480024016841F004010160016801F080
:1014900004010591016841F080010160016801F0DB
:1014A00080010591016841F00101016000680C4E66
:1014B00000F001004FF4E055059001222946304626
:1014C000FFF762FB01200095CDE901046946304633
:1014D0000394FFF737FA06B070BD000030380240C1
:1014E000001C024070B5184C1648002520604FF4CF
:1014F000E130C4E901050C20E560C4E90450A561B0
:101500002046E561FFF7D6FE08B1FFF76BF9202012
:1015100084F83D0084F83E00616B012081F83500BD
:10152000A16B81F83500606B80F83450A06B80F8B7
:10153000345084F83C502068C16841F40051C160C7
:1015400070BD00000010014014030020FEE7FEE71C
:1015500070477047FFF724BB70B592B030216846E2
:10156000FEF778FE14210CA8FEF774FE1F48002534
:10157000016841F080510160006800F080501190D6
:101580001B48016841F4404101600068022400F4F6
:101590004040119001200090000401908001CDE9AD
:1015A00006400F260896D820CDE9090404200B90A8
:1015B0006846FFF7B5FC08B172B6FEE7FFF78CFB93
:1015C00008B172B6FEE74FF4A050CDE90E504FF4CB
:1015D0008050CDE90C64109005210CA8FFF7B4FBF6
:1015E000002801D072B6FEE712B070BD403802404C
:1015F000007000400248016841F4700101607047CA
:1016000088ED00E070B5044600680169E26821F4E5
:101610004051114301612169A068E2690843616991
:10162000114308432168CA6849F20C639A43024394
:10163000CA6020684169A26921F440711143416187
:1016400031492068884202D03049884202D1FFF7F0
:1016500025FC01E0FFF712FCE26900231921642553
:101660003226B2F5004F626828D0A0FB0101930F2B
:101670009200FEF7B7FD0146B0FBF5F06FF01802DF
:10168000504301EB800006EB0010B0FBF5F000F0DA
:10169000F002B1FBF5F002EB0012B1FBF5F06FF0D8
:1016A0001803584301EB800006EB0010B0FBF5F087
:1016B00000F00F0021681044886070BDA0FB01019C
:1016C00092185B41FEF78EFD0146B0FBF5F002017A
:1016D000B1FBF5F06FF01803584301EB800006EB07
:1016E000C000B0FBF5F000F0F80002EB4002B1FBE7
:1016F000F5F0584301EB800006EBC000B0FBF5F0BD
:1017000000F00700D6E7000000100140001401407F
:1017100070B50D4607491446884209D106A10D4807
:1017200000F046FA21462846BDE8704000F014B8A3
:1017300070BD000014030020B1BEB4CEBDD3CAD525
:10174000B5BDD7D6BDDACAFDCEAA3A2025750D0A99
:1017500000000000140000202DE9F84F002270B1B5
:1017600069B17F4B4FF6FF741B681D68ED436D0632
:1017700007D5521CA242F8D30320BDE8F88F012000
:10178000FBE76FF040021A60754B202283F83D2082
:101790005B6B012283F83520714B00225B6B83F871
:1017A00034206F4B83F83C201A46526B126851600C
:1017B0001946496B0968C86018466B4B406B00902E
:1017C000684C694D684E684F0068DFF89881DFF813
:1017D0009491DFF894A1D914DFF888B1DFF884E19F
:1017E000483C6035783630378A0209F118090AF129
:1017F000180AABF1300B0EF1300E4FF0006C404583
:1018000025D9984205D0A04203D0A84201D048452E
:1018100001D1202118E0504516D0584514D0B042CF
:1018200012D0704510D0B8420BD04E4918398842BA
:1018300007D04D499031884203D04A494831884207
:1018400001D1114600E0614646484C382AE0DFF8F5
:10185000188108F1A808404526D9984205D0A04231
:1018600003D0A84201D0484501D1202118E05045BD
:1018700016D0584514D0B04212D0704510D0B8429E
:101880000BD038491839884207D0374990318842FF
:1018900003D034494831884201D1114600E0614605
:1018A00030485038016052E0DFF8BC8008F1480849
:1018B000404526D9984205D0A04203D0A84201D085
:1018C000484501D1202118E0504516D0584514D084
:1018D000B04212D0704510D0B8420BD0214918390F
:1018E000884207D020499031884203D01D494831B1
:1018F000884201D1114600E061461B481038C160A2
:1019000025E0984205D0A04203D0A84201D0484526
:1019100001D1202118E0504516D0584514D0B042CE
:1019200012D0704510D0B8420BD00E4918398842F9
:1019300007D00D499031884203D00A494831884286
:1019400001D1114600E061460748103881600098D7
:101950000068016841F00101016000200DE700000E
:101960001403002058640240106002402DE9F84F33
:101970008A4A10680168C943C90674D40168002303
:1019800040680090906B0068016821F001010160DF
:10199000906B00684168C1F5807189B2009101685F
:1019A000090304D57E49046824F4002403E07D493A
:1019B000046844F4002404607848202480F83E4001
:1019C000806B012280F8352074481202806B80F809
:1019D00034307248806B006842607048724D734EBC
:1019E000406B714FDFF8C0810068DFF8C091DFF80D
:1019F000B8A1DFF8B8B1D200DFF8ACE16B4C483DDC
:101A000093029036483709F160090AF1180A0BF180
:101A1000180BAEF1300E4FF0006C404528D9A042B3
:101A200005D0A84203D0484501D0504501D120221D
:101A30001BE0584519D0704517D05C4C7834A04253
:101A400013D0594C3034A0420FD0584A3032904213
:101A500007D0554A183A904203D0B04201D0B8425C
:101A600002D11A4601E096E062464F484C382CE01D
:101A7000DFF8388108F1A808404528D9A04205D0F0
:101A8000A84203D0484501D0504501D120221AE098
:101A9000584518D0704516D0444C7834A04212D026
:101AA000414C3034A0420ED0404A3032904207D0F0
:101AB0003D4A183A904203D0B04201D0B84201D119
:101AC0001A4600E0624638485038026056E0DFF8B7
:101AD000DC8008F14808404528D9A04205D0A8423A
:101AE00003D0484501D0504501D120221AE0584585
:101AF00018D0704516D02D4C7834A04212D02A4C04
:101B00003034A0420ED0294A3032904207D0264AC3
:101B1000183A904203D0B04201D0B84201D11A46DF
:101B200000E0624621481038C26027E0A04205D09C
:101B3000A84203D0484501D0504501D120221AE0E7
:101B4000584518D0704516D0184C7834A04212D0A1
:101B5000154C3034A0420ED0144A3032904207D097
:101B6000114A183A904203D0B04201D0B84201D194
:101B70001A4600E062460D48103882600748806BC4
:101B80000068026842F001020260009ABDE8F84F66
:101B90000248FFF7BDBDBDE8F88F00001403002028
:101BA000140200201401002058640240106002401A
:101BB0000FB42DE9F84F05004FF0000062D00B99EB
:101BC000F1B3834C4FF6FF7221680B68DB435B0671
:101BD00007D5401C9042F8D30320BDE8F80F5DF80C
:101BE00014FB6FF040000860202084F83D00616B1A
:101BF000012081F83500616B00200CAA81F83400C7
:101C000084F83C0028460B9900F0FAF8411C39D0C2
:101C1000616B80B2096848606D48406B0068C560C0
:101C20006B486C4FDFF8B0C1406B0090DFF8A481C7
:101C30000068694E483F0CF1600CDFF8989100E0B5
:101C400020E0F114634C634DDFF88CA1DFF884B120
:101C5000DFF884E18A02183C48350B0409F11809C1
:101C60000AF1180AABF1300B0EF1780E404527D976
:101C7000B04205D0B84203D0604501D0484503D1F9
:101C800020211AE00120A8E7504516D0584514D06D
:101C9000704512D04F4E3036B0420ED04E493031E2
:101CA000884207D0A04205D04B499031884201D0EC
:101CB000A84201D1114600E0194646484C382AE0B6
:101CC000DFF8148108F1A808404526D9B04205D0B4
:101CD000B84203D0604501D0484501D1202118E029
:101CE000504516D0584514D0704512D0394E303674
:101CF000B0420ED038493031884207D0A04205D0DA
:101D000035499031884201D0A84201D1114600E006
:101D1000194630485038016052E0DFF8BC8008F1C5
:101D20004808404526D9B04205D0B84203D06045A6
:101D300001D0484501D1202118E0504516D0584522
:101D400014D0704512D0234E3036B0420ED0224906
:101D50003031884207D0A04205D01F4990318842D7
:101D600001D0A84201D1114600E019461A481038A6
:101D7000C16025E0B04205D0B84203D0604501D033
:101D8000484501D1202118E0504516D0584514D0BF
:101D9000704512D00F4E3036B0420ED00E49303161
:101DA000884207D0A04205D00B499031884201D02B
:101DB000A84201D1114600E0194607481038816059
:101DC00000980068016841F001010160002004E70B
:101DD000140300205864024010600240FEE7000037
:101DE0000FB4054B10B503A9044A029800F0FCF8A3
:101DF00010BC5DF814FB0000212700081000002033
:101E000037B514460846064B6A46214600F0ECF802
:101E100004466946002000F07EFC20463EBD0000DE
:101E2000172700080907090E002804DB00F1E0204D
:101E300080F80014704700F00F0000F1E02080F8F7
:101E4000141D704702E008C8121F08C1002AFAD109
:101E500070477047002001E001C1121F002AFBD12A
:101E6000704700002DE9FF5F82B00021DDE90430FA
:101E7000020DDDF840B0034318D044F61050A2F232
:101E8000FF3242431514119801281FD0A5EB0B0017
:101E9000401C5FEA000A4FF000064E4FDFF8389111
:101EA000B046504615D5CAF1000413E0119801243C
:101EB0004AA3012801D16FEA0B010298119AC0E9E7
:101EC0000031C0E9024206B0BDE8F09FCBF100004E
:101ED000DFE704460021404A491842EB0450CDE9AF
:101EE000001012E0E00707D032463B464046494624
:101EF000FEF797FA8046894632463B461046194619
:101F0000FEF78FFA06460F466410002CEAD1DDE991
:101F10000401DDE90023BAF1000F06DAFEF781FAC9
:101F200042464B46FEF77DFA05E0FEF7ECFA4246E4
:101F30004B46FEF7E8FA04460E460022284BFEF711
:101F400069FB03D84FF0FF30014607E00022254B24
:101F500020463146FEF7BEF9FEF744FB102409E0A7
:101F6000002C0ADB0A220023FEF73CF9039B3032E7
:101F70001A55641E50EA0102F2D1641C039AC4F19E
:101F800011031444119A012A03D0012208430DD1F0
:101F90000AE0084304D000204FF0110B119072E7C3
:101FA000A3EB0B056D1E0DE05B4504DD4FF0000259
:101FB00005F1010504E003DA4FF00002A5F1010587
:101FC000002AECD002981199C0E90231C0E900451D
:101FD00079E70000000014400000F03F30000000EE
:101FE0000000F0430000E03F2DE9FF4F95B09B4615
:101FF0008946064600250FE2252877D1002427468A
:10200000F84A0121059400E0044316F8013F203B03
:1020100001FA03F01042F7D130782A2811D06FF07E
:102020002F033078A0F13002092A16D8059A44F01F
:10203000020402EB820203EB42021044761C05907C
:10204000EFE759F8042B0592002A03DA504244F4D2
:102050000054059044F00204761C30782E2816D1E6
:1020600016F8010F44F004042A280DD06FF02F0257
:102070003078A0F13003092B09D807EB870302EB76
:102080004303C718761CF3E759F8047B761C3078B5
:102090006C280FD006DC4C2817D068280DD06A2891
:1020A00014D104E0742810D07A280FD10DE044F444
:1020B00000140AE044F4801401E044F440147278FF
:1020C000824202D104F58014761C761C3078662892
:1020D0000BD013DC582877D009DC002875D04528B0
:1020E000F6D04628F4D047281AD19DE118E063289D
:1020F00035D0642879D0652812D195E1702873D045
:1021000008DC6728F1D069286FD06E280DD06F28C1
:1021100006D1B5E073282CD0752875D0782874D0F6
:102120005A46179990476D1C75E1C4F30250022876
:1021300009D003280DD0D9F8001004280DD00D6067
:1021400009F1040967E1D9F80010EA17C1E9005262
:10215000F6E7D9F800100D80F2E70D70F0E719F8F6
:10216000041B8DF8001000208DF80100EA460120C4
:1021700003E059F804AB4FF0FF3061074FF0000166
:1021800002D40DE008F101018846B9420FDA80451A
:10219000F8DB1AF808100029F4D108E008F1010171
:1021A00088468142FADB1AF808100029F6D1059812
:1021B0005B46A0EB080721463846179A00F094FAD0
:1021C000284400EB080507E04DE029E10DE01AF88E
:1021D000010B5A4617999047B8F10108F7D25B46B0
:1021E00021463846179A13E142E00A220092C4F3CE
:1021F00002524FF0000A022A08D059F804CB032AF1
:102200004FEAEC710AD00DE029E02AE009F107015C
:1022100021F00702F2E802C1914609E00FFA8CFCB6
:102220004FEAEC71042A03D14FFA8CFC4FEAEC71AF
:10223000002907DA0A460021DCF1000C61EB0201FB
:102240002D2202E0220504D52B228DF80420012244
:1022500003E0E20701D02022F7E7904659E00A2187
:1022600002E010220DE010214FF0000A00910BE077
:1022700010224FF0000A44F004040827009203E003
:1022800008224FF0000A0092C4F30252022A05D03D
:1022900059F804CB0021032A08D009E009F107010D
:1022A00021F00702F2E802C1914605E01FFA8CFC1A
:1022B000042A01D10CF0FF0C4FF00008220728D5AA
:1022C000702806D0009B83F0100353EA0A0305D060
:1022D0000EE040228DF80420012208E05CEA0102B1
:1022E00006D030228DF804208DF805000222904699
:1022F000009B83F0080353EA0A030AD15CEA010257
:1023000001D1620705D530228DF804204FF0010875
:102310007F1E582804D034A003900EA802900DE030
:1023200036A0F9E753466046009AFDF75BFF844606
:102330000398825C0298401E029002705CEA0100E1
:10234000F0D1029806A9081A00F1200A600702D508
:1023500024F4803400E00127574502DDA7EB0A0092
:1023600000E0002000EB0A01009005984144401A6B
:102370000590E00306D45B462146179A059800F0C5
:10238000B3F90544002706E001A85A46C05D179935
:1023900090476D1C7F1C4745F6DBE0030CD55B4680
:1023A0002146179A059800F09FF9054404E0302073
:1023B0005A46179990476D1C0099481E00900029B5
:1023C000F5DC08E0029802995A460078491C02910F
:1023D000179990476D1CBAF10001AAF1010AF1DCCE
:1023E00065E10000092801003031323334353637D9
:1023F0003839616263646566000000003031323351
:1024000034353637383941424344454600000000F0
:1024100000F058F90544761C307800287FF4ECADC4
:1024200019B02846BDE8F08F620700D4062709F1ED
:10243000070222F0070CFCE80223E14603F0004803
:102440005FEA080C02D00FF2702C0DE05FEA045C2A
:1024500002D50FF2682C07E05FEAC47C02D00FF2CD
:10246000602C01E0AFF2700C4FF0FF3823F0004316
:10247000CDF850C065280CD006DC452809D0462888
:102480001DD047283DD13DE0662818D067287ED171
:1024900038E00021112F01DB112000E0781CCDE98C
:1024A000000106A90EA8FFF7DDFCDDE90F010E9A79
:1024B00003910021009207F1010A04914DE04FF0D1
:1024C00000400097CDE9011006A90EA8FFF7CAFC4D
:1024D000DDE90F0203920E9B11990022DDF80CA09A
:1024E0000093049211B9791C00EB010AB7EB0A00C2
:1024F00004D4C0F1FF3007F1010A0490AAEB0700F1
:10250000019044E0012F00DA01270021112F01DDA5
:10251000112000E03846CDE9000106A90EA8FFF71A
:10252000A1FCDDE90F010E9A0391002104910092B4
:10253000BA4621070CD40399514500DA8A46BAF10C
:10254000010F05DD009AAAF10101515C302908D084
:10255000B84202DA10F1040F06DA0121CDE90110C8
:1025600015E0AAF10101E9E7002805DC049901441E
:102570000491AAEB000102E0411C514500DD8A46AE
:102580000499401A401C01904FF00040029020072F
:1025900004D40198504501DBCDF8048000208DF86B
:1025A0004F0002980DF14F07B0F1004F25D02B20BE
:1025B0000E9002984FF0020800280CDA4042029078
:1025C0002D200E9007E00A210298FDF74EFE3031D3
:1025D000029007F8011DB8F10001A8F10108F2DC32
:1025E00002980028EFD1791E0E980870307800F01C
:1025F000200040F0450007F8020D12A8C01B00F1B2
:1026000007081498007800B1012000EB0A01019836
:1026100001EBE07105984144401A401E0590E0032B
:1026200006D45B462146179A059800F05DF80544EC
:102630001498007818B15A46179990476D1CE0031A
:1026400024D55B462146179A059800F04DF80544BD
:102650001CE00498002807DBDDE90301884203DD64
:102660000098405C179901E0179930205A4690472E
:10267000049805F10105401C04900198401E01904A
:1026800004D12E205A46179990476D1CBAF10001CB
:10269000AAF1010ADDDC05E017F8010B5A4617998B
:1026A00090476D1CB8F10001A8F10108F4DC5B460D
:1026B0002146179A0598ABE62D0000002B0000007C
:1026C000200000002DE9F041044600251E46174673
:1026D000880404D405E039462020B0476D1C641EF0
:1026E000F9D52846BDE8F0812DE9F04104460025E2
:1026F0001E469046C80301D5302700E020278804F5
:1027000004D505E041463846B0476D1C641EF9D536
:102710002846BDE8F0810A68531C0B6010707047B2
:102720000449C2B20B685A6009680A68D2431206AB
:10273000FBD47047140300200F494FF0006008607D
:10274000FEF736FAFEF708FFFEF794FEFEF784FE6A
:10275000FEF7C8FE094D4FF4006421462846FEF7F7
:102760000BFA6420FEF7DCF805A0FFF739FB06A1A1
:102770000748FFF71DFAF0E708ED00E0001C0240F3
:1027800048656C6C6F200000576F726C640D0A0016
:1027900014000020000610160006101600000000AD
:1027A0000000000001020304060708090000000001
:1027B00001020304D42700080000002014000000D8
:1027C000441E0008E8270008140000200408000048
:1027D000541E00080100000010000000000000006E
:0827E0000024F40000000000D9
:04000005080001AD41
:00000001FF
