:020000040800F2
:10000000400A0020C10100083D2700089D2000088B
:1000100039270008DD0F00086138000800000000E3
:10002000000000000000000000000000432700085E
:10003000DF100008000000004127000845270008E5
:10004000DB010008DB010008DB010008DB01000820
:10005000DB010008DB010008DB010008DB01000810
:10006000DB010008DB010008DB010008DB01000800
:10007000DB010008DB010008DB010008DB010008F0
:10008000DB010008DB010008DB010008DB010008E0
:10009000DB010008DB010008DB010008DB010008D0
:1000A000DB010008DB010008DB010008DB010008C0
:1000B000DB010008DB010008DB010008DB010008B0
:1000C000DB010008DB010008DB010008DB010008A0
:1000D000DB010008012F0008DB010008DB0100083C
:1000E000DB010008DB010008DB010008DB01000880
:1000F000DB010008DB010008DB010008DB01000870
:10010000DB010008DB010008DB010008DB0100085F
:10011000DB010008DB010008DB010008DB0100084F
:10012000DB010008DB010008DB010008DB0100083F
:10013000DB010008DB010008DB010008DB0100082F
:10014000DB010008DB010008DB010008DB0100081F
:10015000DB010008DB010008DB010008DB0100080F
:10016000DB010008DB010008DB010008DB010008FF
:10017000DB010008DB010008DB01000800000000D3
:10018000DB010008DB010008DB010008DB010008DF
:10019000DB010008DB010008DB010008DB010008CF
:1001A000DB010008DB010008DB010008DFF80CD0F0
:1001B00000F05AFA00480047DD410008400A0020DC
:1001C0000648804706480047FEE7FEE7FEE7FEE7F1
:1001D000FEE7FEE7FEE7FEE7FEE7FEE70928000888
:1001E000AD0100082DE9F05F0546002092469B46D0
:1001F00088460646814640241BE02846414647463D
:10020000224600F069F853465A46C01A914110D36D
:1002100011461846224600F050F82D1A67EB0108E7
:100220004F4622460120002100F047F817EB000955
:100230004E41201EA4F10104DFDC484631462A4627
:100240004346BDE8F09F40EA01039B0703D009E065
:1002500008C9121F08C0042AFAD203E011F8013BB2
:1002600000F8013B521EF9D27047D2B201E000F80B
:10027000012B491EFBD270470022F6E710B513464A
:100280000A4604461946FFF7F0FF204610BD30B578
:100290000B46014600202022012409E021FA02F544
:1002A0009D4205D303FA02F5491B04FA02F52844DE
:1002B000151EA2F10102F1DC30BD202A04DB203A38
:1002C00000FA02F1002070479140C2F1200320FAA9
:1002D00003F3194390407047202A04DB203A21FAA7
:1002E00002F00021704721FA02F3D040C2F120024F
:1002F00091400843194670472DE9FE4F804681EA38
:100300000300C00F0C46009021F0004123F000458F
:10031000B8EB0200A94105D24046214690461C4652
:100320000B46024623F00040104347D0270DC7F389
:100330000A00C3F30A510290401A019040286BDA78
:10034000C3F3130040F4801B0098924620B10023B1
:10035000D2EB030A63EB0B0B01985946C0F1400244
:100360005046FFF7AAFF06460D4650465946019AE9
:1003700000F08CF910EB08006141002487EA11526B
:1003800084EAE7731A4340D0009A62B3019A012AC3
:100390004FEA075215DC001B61EB02014FF00042EF
:1003A00002EA0752CDE90042001C41F580113246B5
:1003B0002B4600F08CF903B0BDE8F08F4046214693
:1003C000F9E7001B61EB0201001C41F580130018E6
:1003D0005B412018A2F5001747EB030140EAD570F6
:1003E000B6196D4111E06D084FEA360645EAC07551
:1003F0004FEA0752001B61EB0201001C41F580111E
:1004000049084FEA30000019514132462B4603B0EB
:10041000BDE8F04F00F04CB90098012240000023E5
:10042000D0EB020263EBE073009821464FEAE074E0
:10043000B8EB000061EB0401E9E783F000435BE700
:1004400081F0004158E72DE9FE4F81EA030404F0F2
:10045000004421F0004100944FF0000B23F00043D2
:1004600050EA01045ED052EA03045BD0C3F30A549D
:10047000C1F30A552C44A4F2F3340194A0FB0254B6
:10048000C1F3130141F48011C3F3130343F4801348
:1004900001FB024400FB034E840A970A44EA81549C
:1004A00047EA8357A4FB076802958D0A05FB078579
:1004B0004FEA932C04FB0C542705029D4FEA065883
:1004C00047EA1637B5EB08056EEB070C870E920E60
:1004D00047EA811742EA8312A7FB0201B6EB0B0140
:1004E00064EB00042B0D43EA0C335E1844EB1C5004
:1004F000DA465146E7FB0201C5F313044FEA0B331A
:1005000043EA14534FEA0432019C43EA0603A4F180
:100510000C040294009CCDE900B400F0D8F803B0BC
:10052000BDE8F08F00200146F9E72DE9F04D81EAA2
:10053000030404F0004B21F0004514464FF0000A7C
:1005400023F0004150EA050220D054EA01021DD0F8
:10055000C5F30A570246C5F31303C1F31300C1F3F1
:100560000A5640F4801543F48013A7EB0608101BCD
:10057000D64608F2FD3873EB050002D308F10108F6
:1005800001E092185B41B8F1000F03DA0020014648
:10059000BDE8F08D00204FF48011064684460EE041
:1005A000171B73EB050705D3121B63EB050306430B
:1005B0004CEA010C49084FEA300092185B4150EABE
:1005C0000107EDD152EA030012D082EA040083EA67
:1005D0000501084305D0101BAB4106D201220023C0
:1005E00006E000224FF0004302E06FF001025310DA
:1005F0001AEB06004CEB085110EB0A0041EB0B0123
:10060000BDE8F04D00F054B8C1F30A52C1F3130134
:1006100040F2FF3341F480119A4202DA0020014691
:10062000704740F233439A42A2F2334202DC524214
:10063000FFF752BEFFF741BE30B5041E71F1000452
:1006400004DB4FF00044404264EB0101141E73F1DF
:10065000000405DB1C464FF00043524263EB0403E9
:10066000994208BF904230BD064C074D06E0E06855
:1006700040F0010394E8070098471034AC42F6D3E9
:10068000FFF798FD0443000824430008202A06DBF6
:10069000CB17203A41FA02F043EAE07306E041FA50
:1006A00002F3D040C2F1200291400843194670473E
:1006B00010B5141E73F1000408DA401C41F100016A
:1006C00092185B411A4301D120F0010010BD2DE9C1
:1006D000F04D92469B4611B1B1FA81F202E0B0FAB8
:1006E00080F220329046FFF7E8FD04460F4640EACC
:1006F0000A0041EA0B0153465A46084313D01146FB
:1007000053EA010019D0C8F140025046FFF7E4FD5A
:1007100005460E46504659464246FFF7CEFD084371
:1007200005D0012004E020463946BDE8F08D0020C8
:10073000054346EAE0762C4337430A986305E40A0A
:10074000A0EB08000022FD0A44EA47540A3002D513
:1007500000200146E9E7010510196941DDE9084576
:1007600000196941BDE8F04DA2E70000F8B5044664
:100770000D4601261B4A1CA1204802F025FE04B1AB
:100780004DB91FA0382325A22AA100901B4802F0D2
:100790001BFE0320F8BD95E8070084E807002068E9
:1007A00048B917A042231DA222A10090134802F0CD
:1007B0000BFE0320EEE7206880470646012E09D095
:1007C00022A0482315A21BA100900C4802F0FCFDBA
:1007D0000020DFE7034A22A1084802F0F5FD304679
:1007E000D8E70000A44200085B2B2B2B5D25732863
:1007F000292D3E626567696E0D0A000038020020EF
:10080000454E5F415432344358585F504152414D38
:100810005F49535F4E554C4C000000002E2E5C4447
:1008200065766963655C5372635C617432346378C6
:10083000782E63005B4552524F525D257328292D57
:100840003E5B25755D3A2025730D0A00454E5F41DC
:100850005432344358585F4552524F520000000002
:100860005B2D2D2D5D257328292D3E656E640D0AA7
:1008700000000000FFB583B0054617461E46012460
:10088000A0200290314A32A1364802F09DFD9DF829
:100890001000CDE900069DF808302C4A32A13148FD
:1008A00002F092FD284600F061FA0446012C0AD0BD
:1008B0003CA0C4233FA245A100902A4802F084FD39
:1008C000204607B0F0BD01230022194602A8D5F842
:1008D00004C0E0470446012C09D032A0CB2335A246
:1008E0003AA100901F4802F06FFD2046E9E701237E
:1008F0001A46194604A8D5F804C0E0470446012C5E
:1009000009D028A0D2232BA230A10090154802F0D4
:100910005BFD2046D5E70023012231463846D5F855
:1009200004C0E0470446012C09D01EA0D92321A20F
:1009300026A100900B4802F047FD2046C1E7034A7C
:1009400028A1084802F040FD2046BAE7D542000839
:100950005B2B2B2B5D257328292D3E626567696E05
:100960000D0A0000380200205B494E464F5D25739A
:1009700028292D3E6465766963655F616464722031
:100980003D20253032582C2061646472203D2025A2
:100990003032582C206C656E677468203D202575B8
:1009A0000D0A0000454E5F415432344358585F4EA3
:1009B00041434B002E2E5C4465766963655C53723F
:1009C000635C617432346378782E63005B45525205
:1009D0004F525D257328292D3E5B25755D3A2025F4
:1009E000730D0A005B2D2D2D5D257328292D3E6585
:1009F0006E640D0A00000000FFB583B00446164681
:100A00001F460125A0200290434A44A1484802F015
:100A1000DBFC0498CDE900079DF808303E4A45A16B
:100A2000434802F0D1FC04B156B951A0822357A229
:100A30005CA100903E4802F0C7FC032007B0F0BD67
:100A4000204600F093F90546012D09D05BA08923CB
:100A50004EA254A10090364802F0B6FC2846EDE7BD
:100A600001230022194602A8D4F804C0E047054635
:100A7000012D09D051A0902344A24AA100902C48F6
:100A800002F0A2FC2846D9E701231A46194604A819
:100A9000D4F804C0E0470546012D09D047A09723AC
:100AA0003AA240A10090224802F08EFC2846C5E7F9
:100AB0009DF80800401CC0B2029001230022194694
:100AC00002A8D4F804C0E0470546012D09D03BA098
:100AD0009F232EA233A10090154802F075FC2846F2
:100AE000ACE70023012239463046D4F808C0E0477D
:100AF0000546012D09D031A0A62324A229A10090EA
:100B00000B4802F061FC284698E7034A2FA10848E9
:100B100002F05AFC284691E7C84200085B2B2B2BB9
:100B20005D257328292D3E626567696E0D0A0000F8
:100B3000380200205B494E464F5D257328292D3E23
:100B40006465766963655F61646472203D20253069
:100B500032582C2061646472203D20253032582C9C
:100B6000206C656E677468203D2025750D0A0000B5
:100B7000454E5F415432344358585F504152414DC5
:100B80005F49535F4E554C4C000000002E2E5C44D4
:100B900065766963655C5372635C61743234637853
:100BA000782E63005B4552524F525D257328292DE4
:100BB0003E5B25755D3A2025730D0A00454E5F4169
:100BC0005432344358585F4E41434B005B2D2D2D1A
:100BD0005D257328292D3E656E640D0A0000000016
:100BE0002DE9F84307460D4616464FF0010800244C
:100BF000344A35A1394802F0E7FB0FB105B15EB9BF
:100C000037A040F26E233DA242A10090334802F08B
:100C1000DBFB0320BDE8F883002404E0AA2028556C
:100C200000203055641CFF2CF8D94FF480732A46FD
:100C30000021384600F0F2F88046B8F1010F0AD0E2
:100C400027A040F27F232DA232A10090234802F07A
:100C5000BBFB0320DEE74FF48073324600213846A9
:100C6000FFF7CAFE8046B8F1010F0AD01CA040F27F
:100C7000862322A227A10090184802F0A5FB03209A
:100C8000C8E700240FE0285D315D88420AD027A024
:100C900040F28E2319A21FA10090104802F094FB8D
:100CA0000020B7E7641CFF2CEDD9064A24A10B48AD
:100CB00002F08AFB034A27A1084802F085FB0120C5
:100CC000A8E70000F64200085B2B2B2B5D2573285C
:100CD000292D3E626567696E0D0A0000380200200A
:100CE000454E5F415432344358585F504152414D54
:100CF0005F49535F4E554C4C000000002E2E5C4463
:100D000065766963655C5372635C617432346378E1
:100D1000782E63005B4552524F525D257328292D72
:100D20003E5B25755D3A2025730D0A00454E5F41F7
:100D30005432344358585F4552524F52000000001D
:100D40005B2D2D2D5D257328292D3E656E640D0AC2
:100D5000000000005B494E464F5D257328292D3E5B
:100D600074657374206F6B210D0A00007CB5044616
:100D70000025A02001900DE06D1C0E48854209D38E
:100D80000DA0612311A217A100901C4802F01CFBCA
:100D900002207CBD00231A46012101A86668B047E5
:100DA0000128E9D1164A17A1144802F00DFB0120D1
:100DB000EFE70000FFFF0F00454E5F415432344320
:100DC00058585F54494D454F555400002E2E5C44F1
:100DD00065766963655C5372635C61743234637811
:100DE000782E63005B4552524F525D257328292DA2
:100DF0003E5B25755D3A2025730D0A003802002000
:100E0000B14200085B494E464F5D257328292D3EAF
:100E10007265616479206F6B0D0A00002DE9F84F4F
:100E200081460C4616461D4601274FF0000A4FF03A
:100E30000008324A32A1374802F0C6FA23462F4A48
:100E400035A13448009502F0BFFAB9F1000F00D087
:100E500056B93BA0F72341A246A100902D4802F0CD
:100E6000B3FA0320BDE8F88F24F007044FEAD50A4F
:100E700005F007085346214A44A12648CDF80080D2
:100E800002F0A2FA4FF0000B17E0E1B2082332465D
:100E90004846FFF7EFFC0746012F0AD046A04FF463
:100EA00085732EA233A100901A4802F08DFA3846BD
:100EB000D8E7083408360BF1010BD345E5D3B8F178
:100EC000000F14D008F0FF03E1B232464846FFF7A6
:100ED000D1FC0746012F0AD037A040F217131FA2FA
:100EE00024A100900B4802F06FFA3846BAE7034A93
:100EF00035A1084802F068FA3846B3E7E84200082E
:100F00005B2B2B2B5D257328292D3E626567696E4F
:100F10000D0A0000380200205B494E464F5D2573E4
:100F200028292D3E61646472203D20253032582CE2
:100F3000206C656E677468203D2025750D0A0000E1
:100F4000454E5F415432344358585F504152414DF1
:100F50005F49535F4E554C4C000000002E2E5C4400
:100F600065766963655C5372635C6174323463787F
:100F7000782E63005B4552524F525D257328292D10
:100F80003E5B25755D3A2025730D0A005B494E4690
:100F90004F5D257328292D3E706167655F6E756D05
:100FA0003A2025752C20706167655F6D6F64653A26
:100FB0002025750D0A000000454E5F415432344330
:100FC00058585F4E41434B005B2D2D2D5D257328F6
:100FD000292D3E656E640D0A0000000000BFFEE78B
:100FE0000146087810381823B0FBF3F20848805CFB
:100FF000C865032A05D908686FF30900001D8865D4
:1010000003E008686FF309008865886D7047000089
:1010100084420008014600208A6A8B69CBB932B14C
:10102000012A0DD0022A03D0032A10D10EE000BFFE
:10103000CB6A03F08073B3F1807F00D1012007E019
:10104000CB6AB3F1C07F00D1012001E000E000BF16
:1010500034E08B69B3F5005F1AD132B1012A07D0B1
:10106000022A03D0032A11D10AE000BF01200EE0BA
:10107000CB6A03F08073B3F1807F00D1012006E0DA
:10108000CB6AB3F1C07F00D1012000E000BF15E0C2
:1010900032B1012A05D0022A04D0032A0CD103E080
:1010A00000BF00BF012008E0CB6A03F08073B3F1FA
:1010B000807F00D1012000E000BF00BF704710B565
:1010C000046863608468402C04D10468A2600468EA
:1010D000E16003E00468A1600468E26010BD70474D
:1010E00072B600BFFEE70146087805280CD2DFE89B
:1010F00000F003050C0709000A2070470520FCE7F3
:101100000220FAE70120F8E700BF0420F5E72DE907
:10111000F04704460E4617461D46DDF820804FF086
:101120000009A068802804D1400060654FF00109E3
:1011300029E000BF94F83400012802D10220BDE864
:10114000F087012084F8340000BF94F835000128AE
:1011500017D1022084F835002068006840F4802010
:10116000216808602068056143463A4631462046BA
:10117000FFF7A5FF2068006840F0010021680860C3
:1011800001E04FF002094846D9E700002DE9F0419F
:101190000446002500F0A4F9074614B90120BDE873
:1011A000F081606A00B100BF022084F8350000BF02
:1011B000002084F8340000BF2068006820F001009F
:1011C000216808600AE000F08BF9C01B052805D9EA
:1011D00020206065032084F83500E0E7206800687F
:1011E00000F001000028EED1206805682148054084
:1011F000D4E901010843E1680843216908436169B2
:101200000843A1690843E1690843216A084305438B
:10121000606A042803D1D4E90B0108430543206820
:1012200005602068456925F00705606A0543606A26
:1012300004280DD1A06A0543E06A48B12046FFF7B3
:10124000E9FE28B140206065012084F83500A6E75A
:10125000206845612046FFF7C3FE064694F85C10FF
:101260003F208840B06000206065012084F8350090
:10127000002094E73F8010F070B5044600F030F98C
:1012800006462546681C10B104480078054400BF96
:1012900000F026F9801BA842FAD370BD0800002098
:1012A000F8B502460B460025002400200021E0E0AE
:1012B000012606FA01F51E6806EA0504AC4274D15F
:1012C0001E7906F00306012E04D01E7906F00306EF
:1012D000022E13D190684F000326BE40B0434F004A
:1012E000DE68BE4030439060506801268E40B043B7
:1012F0001E79C6F300168E40304350601E7906F00A
:101300000306032E09D0D0684F000326BE40B04329
:101310004F009E68BE403043D0601E7906F0030641
:10132000022E13D1CF0802F1200656F827004E07EF
:10133000F70E0F26BE40B0434F07FF0E1E69BE409A
:101340003043CF0802F1200646F8270010684F000E
:101350000326BE40B0431E7906F003064F00BE4090
:10136000304310605E6806F44036002E1DD000BF8A
:1013700000260096414E366846F480463F4F3E6058
:101380003E46366806F48046009600BF00BF3C4EDD
:101390008F0856F827008E07370F0F26BE40B04340
:1013A000384EB24202D100262EE061E0364EB24203
:1013B00001D1012628E0354EB24201D1022623E0B8
:1013C000334EB24201D103261EE0324EB24201D169
:1013D000042619E0304EB24201D1052614E02F4E0A
:1013E000B24201D106260FE02D4EB24201D10726AE
:1013F0000AE02C4EB24201D1082605E02A4EB24244
:1014000001D1092600E00A268F073F0FBE40304376
:101410001B4E8F0846F82700244E3068A0435E68B4
:1014200006F4801606B12043204E3060361D306829
:10143000A0435E6806F4001606B120431B4E361D1D
:1014400030601A4E361F3068A0435E6806F40036DE
:1014500006B12043154E361F3060361F3068A0435A
:101460005E6806F4803606B12043104E083E3060B8
:10147000491C1029FFF41CAFF8BD0000443802409D
:101480000838014000000240000402400008024009
:10149000000C0240001002400014024000180240FC
:1014A000001C02400020024000240240083C014091
:1014B000024613690B400BB1012000E00020704789
:1014C00010B5426921EA020302EA010443EA044337
:1014D000836110BD0AB1816101E00B048361704733
:1014E00001480068704700000000002003480068C1
:1014F000034909780844014908607047000000204A
:101500000800002010B50D48006840F400700B4939
:1015100008600846006840F480600860084600687B
:1015200040F480700860032000F0A6F8012000F06D
:1015300007F800F02BF8002010BD0000003C02402E
:1015400070B504460E4800784FF47A71B1FBF0F0A4
:101550000C490968B1FBF0F5284600F075FC08B1AC
:10156000012070BD102C07D200222146501E00F031
:1015700045F80548046001E00120F2E70020F0E7AB
:10158000080000200C0000200400002008B500BF67
:10159000002000901048006840F480400E49086028
:1015A0000846006800F48040009000BF00BF00BF04
:1015B00000200090081F006840F08050091F08605C
:1015C0000846006800F08050009000BF00BF062071
:1015D00000F052F808BD00004438024001460846B9
:1015E000002809DB00F01F0301229A4043099B00F9
:1015F00003F1E023C3F8002100BF70472DE9F05F3D
:1016000080460D461646002702F04EF90746394639
:101610002A46334601F00700C0F1070ABAF1040F69
:1016200002D94FF0040A01E0C0F1070AD14600F1E7
:10163000040ABAF1070F02D24FF0000A01E0A0F14C
:10164000030AD4464FF0010A0AFA09FAAAF1010A7C
:101650000AEA020A0AFA0CFA4FF0010B0BFA0CFB29
:10166000ABF1010B0BEA030B4AEA0B04214640469F
:1016700002F022F9BDE8F09F00BF00F00702064B20
:1016800019684FF6FF031940044B0B4343EA02214C
:10169000014B196000BF70470CED00E00000FA0537
:1016A00038B5002400BF002000901D48006840F0BD
:1016B00080501B4908600846006800F08050009088
:1016C00000BF00BF012017490864FFF709FF044667
:1016D00007E0FFF705FF001BB0F57A7F01D9032073
:1016E00038BD1148406800F48030B0F5803FF0D13B
:1016F00001200C494864FFF7F3FE044607E0FFF7BA
:10170000EFFE001BB0F57A7F01D90320E8E7064819
:10171000406800F40030B0F5003FF0D10020DFE772
:101720004038024000000E420070004070B5044690
:101730000D460CB9012070BD5848006800F00F003C
:10174000A84209D255490D700846006800F00F0004
:10175000A84201D00120EEE7207800F00200022824
:101760001DD1207800F00400042805D14C48006801
:1017700040F4E0504A490860207800F0080008284A
:1017800005D14748006840F4604045490860444836
:10179000006820F0F000A168084341490860207803
:1017A00000F00100A8B36068012807D13C48083860
:1017B0000068C0F34040B8B90120BCE76068022867
:1017C00002D06068032807D1354808380068C0F3A4
:1017D000406048B90120AEE7314808380068C0F3DE
:1017E000400008B90120A6E72D48006820F003005A
:1017F000616808432A490860FFF772FE064609E05F
:10180000FFF76EFE801B41F28831884202D9032027
:1018100091E707E02248006800F00C006168B0EB37
:10182000810FEDD11D48006800F00F00A84209D9D2
:101830001A490D700846006800F00F00A84201D058
:10184000012078E7207800F00400042807D114482C
:10185000006820F4E050E1680843114908602078EE
:1018600000F00800082808D10D48006820F4604006
:10187000216940EAC1000A49086000F03FF80849C0
:101880000968C1F30311074A515CC8400649086062
:1018900006480068FFF754FE00204CE7003C024079
:1018A000083802408C4200080C0000200400002090
:1018B00001480068704700000C00002000B5FFF7E9
:1018C000F7FF04490968C1F38221034A515CC8400B
:1018D00000BD0000083802409C42000800B5FFF738
:1018E000E7FF04490968C1F34231034A515CC8402B
:1018F00000BD0000083802409C4200082DE9F04776
:10190000002400250026A1462548006800F00C00B0
:1019100020B1042805D008283AD105E0DFF88490EA
:1019200039E0DFF8849036E01D48001F006800F0C1
:101930003F041B48001F006800F4800078B11A487B
:101940001749091F0968C1F38811A0FB01700146FE
:10195000224600233846FEF745FC05460EE01148B6
:101960000F49091F0968C1F38811A0FB01700146E6
:10197000224600233846FEF735FC05460848001F7E
:101980000068C0F30140401C4600B5FBF6F902E0D8
:10199000DFF8109000BF00BF4846BDE8F0870000A8
:1019A000083802400024F40040787D01F8B5044670
:1019B0000CB90120F8BD207800F00100002874D097
:1019C000F948006800F00C0004280DD0F6480068C3
:1019D00000F00C00082813D1F348001F006800F441
:1019E0008000B0F5800F0BD1EF4808380068C0F3D5
:1019F0004040002859D06068002856D10120D9E71E
:101A000000BF6068B0F5803F08D1E748083800683B
:101A100040F48030E449083908601EE06068B0F5A1
:101A2000A02F0DD1E0480838006840F48020DE493E
:101A3000083908600846006840F4803008600CE00F
:101A4000D9480838006820F48030D7490839086040
:101A50000846006820F48020086000BF606890B1EC
:101A6000FFF73EFD054606E0FFF73AFD401B642800
:101A700001D903209EE7CC4808380068C0F34040F5
:101A80000028F1D011E0FFF72BFD054606E0FFF737
:101A900027FD401B642801D903208BE7C248083882
:101AA0000068C0F340400028F1D1207800F0020027
:101AB00002285FD1BC48006800F00C0058B1BA4859
:101AC000006800F00C0008281CD1B748001F00680F
:101AD00000F48000B0B9B44808380068C0F3400092
:101AE00020B1E068012801D0012063E7AE48083842
:101AF000006820F0F800216940EAC100AA490839CD
:101B0000086037E0E06800B30120A8490860FFF7EB
:101B1000E7FC054606E0FFF7E3FC401B022801D97D
:101B2000032047E7A04808380068C0F340000028B9
:101B3000F1D09D480838006820F0F800216940EA9B
:101B4000C10099490839086014E0002097490860ED
:101B5000FFF7C6FC054606E0FFF7C2FC401B022863
:101B600001D9032026E7904808380068C0F34000F8
:101B70000028F1D1207800F0080008282CD16069F5
:101B8000A8B101208A490860FFF7AAFC054606E0D3
:101B9000FFF7A6FC401B022801D903200AE7824870
:101BA0006C300068C0F340000028F1D014E0002041
:101BB0007F490860FFF794FC054606E0FFF790FCBC
:101BC000401B022801D90320F4E677486C300068F6
:101BD000C0F340000028F1D1207800F00400042870
:101BE00070D1002770483830006800F0805090B9FC
:101BF00000BF002000906C483830006840F08050F2
:101C00006949383108600846006800F0805000904B
:101C100000BF00BF01276748006800F48070B0B9BA
:101C20006448006840F4807062490860FFF758FC1F
:101C3000054606E0FFF754FC401B022801D90320AB
:101C4000B8E65C48006800F480700028F2D000BF5D
:101C5000A068012808D154486830006840F00100AD
:101C60005149683108601DE0A06805280DD14E4833
:101C70006830006840F004004B496831086008464D
:101C8000006840F0010008600CE0474868300068D8
:101C900020F001004449683108600846006820F0DF
:101CA0000400086000BFA068A8B1FFF719FC054652
:101CB00009E0FFF715FC401B41F28831884202D948
:101CC000032077E626E0384868300068C0F340001B
:101CD0000028EED013E0FFF703FC054608E0FFF70D
:101CE000FFFB401B41F28831884201D9032061E6A5
:101CF0002D4868300068C0F340000028EFD1012F64
:101D000007D129483830006820F080502649383102
:101D1000086000BFA069002845D02348006800F093
:101D20000C0008285DD0A069022845D100201F4979
:101D30000866FFF7D5FB054606E0FFF7D1FB401B21
:101D4000022801D9032035E6174808380068C0F397
:101D500040600028F1D1D4E907010843616A40EAF4
:101D600081110122A06AC2EB500041EA00412C20FF
:101D7000005D41EA00600C49091F086001200B4921
:101D80000866FFF7ADFB054606E0FFF7A9FB401B21
:101D9000022801D903200DE6034808380068C0F383
:101DA00040600028F1D049E0083802400000474276
:101DB000800E474200700040002021490866FFF76E
:101DC0008FFB054606E0FFF78BFB401B022801D97D
:101DD0000320EFE51B480068C0F340600028F2D103
:101DE0002CE0A069012800D1E4E51648001D066832
:101DF000A069012820D006F48001E06981421BD14E
:101E000006F03F01206A814216D147F6C07030408B
:101E1000616AB0EB811F0FD106F440310122A06A44
:101E2000C2EB5000B1EB004F06D106F070612C20E0
:101E3000005DB1EB006F01D00120BBE50020B9E5EA
:101E4000000047420038024070B504462546681E2F
:101E5000B0F1807F01D301200FE0681E4FF0E02138
:101E600048610F214FF0FF3001F026FD00204FF0B8
:101E7000E021886107200861002070BD10B504468C
:101E80000CB9012010BDA06900B100E000BF94F8BA
:101E90003D0028B9002084F83C00204600F028F8D6
:101EA000242084F83D002068C06820F40050216898
:101EB000C860204600F0B2FC2068006920F4904021
:101EC000216808612068406920F02A002168486183
:101ED0002068C06840F400502168C8600020206479
:101EE000202084F83D0084F83E000020CAE700006E
:101EF00010B586B00446142101A8FEF7BDF95E496D
:101F0000206888427ED100BF002000905B480068B6
:101F100040F01000594908600846006800F01000C1
:101F2000009000BF00BF00BF00200090534814384D
:101F3000006840F001005149143908600846006803
:101F400000F00100009000BF00BF4FF4C06001909E
:101F500002200290002003900320049007200590A7
:101F600001A94748FFF79CF94648474908604FF0E8
:101F7000006048604021444881600021C1604FF406
:101F800080610161002141618161C1610162416241
:101F9000FFF7FCF808B1FFF7A3F800BF3A48606309
:101FA000846300BF37487838384908604FF00060D4
:101FB0004860002135488160C1604FF48061016153
:101FC000002141618161C16101624162FFF7DEF878
:101FD00008B1FFF785F800BF2C48A063846300BFF9
:101FE000002211462520FFF709FB2520FFF7F6FA0E
:101FF00027480068001D2649496B09688860244805
:10200000006800E035E0001D2149896B096888609F
:102010004FF480701E4A00901268111D1C4A1D4B1F
:10202000906B1D4AFFF773F819480068406940F04B
:10203000800017490968486115480068406940F008
:10204000400013490968486100BF00200090104813
:102050000068006800900E4800684068009000BF6B
:1020600000BF0B480068C06840F0100008490968CC
:10207000C86006B010BD00000010014044380240A6
:1020800000000240B86402407C050020DC0500200E
:1020900038050020380400203803002000BFFEE788
:1020A00070B504460CB9032070BD002108462269B2
:1020B000904700210120A268904700210120226959
:1020C00090472046FFF70FF80546616988470121D0
:1020D0000020226990472046FFF705F80546616910
:1020E000884700210846226990470120DCE72DE956
:1020F000F04104460D461646012704B115B90320E8
:10210000BDE8F08114222946201DFEF79CF8606886
:1021100008B90320F4E700206168884707460120DA
:1021200061688847074600210846A268904707462D
:1021300000210120A2689047074601210020226962
:1021400090470746012108462269904707462670B6
:10215000012F01D00020D3E73846D1E770B50446FF
:102160000CB9032070BD0021084622699047002168
:102170000120A26890470121084622699047204625
:10218000FEF7B1FF054661698847012100202269F9
:1021900090472046FEF7A7FF054661698847002162
:1021A0000846226990470120DCE72DE9F04104460A
:1021B0000D460020287001210846A268904700269D
:1021C00021E000210846226990472046FEF78BFF58
:1021D00007466169884701210020226990472878D5
:1021E0004006000E28700120E1688847012802D1CE
:1021F0002878401C28702046FEF775FF0746616965
:102200008847701CC6B2082EDBDB0120BDE8F081D8
:102210002DE9F04105460C46164605B114B90320D8
:10222000BDE8F081002708E021462846FFF7BDFF02
:102230002846FFF735FF641C7F1C701EB842F3D898
:1022400021462846FFF7B1FF2846FFF787FF012008
:10225000E6E770B504460CB9032070BD00210120EB
:10226000A268904701210846226990470121002079
:10227000226990472046FEF736FF05466169884788
:1022800000210120226990472046FEF72CFF0546D9
:102290006169884700210846226990470120DCE7F0
:1022A00070B504460CB9032070BD00210120A2685E
:1022B00090470021084622699047002101202269A9
:1022C00090472046FEF70FFF0546616988470121C8
:1022D0000020226990470121084622699047204644
:1022E000FEF701FF0546616988470120DCE770B50C
:1022F000044600250CB9032070BD01210846A268E0
:10230000904701210846226990472046FEF7EBFEE0
:1023100006466169884701210020226990472046CE
:10232000FEF7E1FE06466169884707E06D1C082D4F
:1023300004D32046FFF7B4FF0220DDE70120E16867
:1023400088470128F2D000210846226990470120E1
:10235000D2E72DE9F04104460D4600210120A26894
:1023600090470021084622699047002629E005F0A1
:10237000800020B1012108462269904703E0002136
:102380000120226990476806050E2046FEF7ABFE45
:10239000074661698847012100202269904720464D
:1023A000FEF7A1FE074661698847002108462269B9
:1023B00090472046FEF797FE074661698847701CE4
:1023C000C6B2082ED3DB0120BDE8F0812DE9F04133
:1023D00006460C46174606B114B90320BDE8F08145
:1023E00000250EE0615D3046FFF7B3FF3046FFF792
:1023F0007EFF012804D03046FFF752FF0020EDE7B2
:102400006D1CBD42EED30120E8E7000000B585B0A9
:10241000142206496846FDF716FF02226946044861
:10242000FFF765FE012005B000BD00007042000806
:10243000140000202DE9F04104460D4616461F46C3
:102440004FF001084EB90E48FFF703FF8046B8F180
:10245000010F02D00020BDE8F0812A46214608483D
:10246000FFF7D6FE804647B90548FFF719FF8046BB
:10247000B8F1010F01D00020EDE70120EBE70000EB
:10248000140000202DE9F04104460D4616461F4673
:102490004FF001084EB90E48FFF7DBFE8046B8F159
:1024A000010F02D00020BDE8F0812A4621460848ED
:1024B000FFF78CFF804647B90548FFF7F1FE8046DD
:1024C000B8F1010F01D00020EDE70120EBE700009B
:1024D0001400002030B585B005460C46142168462E
:1024E000FDF7CAFE15B94020009001E08020009061
:1024F00014B90120019001E0002001900120029018
:102500000220039069460348FEF7CAFE012005B089
:1025100030BD000000040240014606480068484300
:10252000054BB0FBF3F200BF101EA2F10102FBD17C
:10253000012070470C00002040420F0008B5014602
:1025400000BF002000900748006840F00200054AE4
:1025500010601046006800F00200009000BF00BF4D
:10256000012008BD3038024010B5044624B940218E
:102570000448FEF79DFF10BD80210248FEF798FF3A
:10258000F9E700000004024070B505460C462DB97D
:10259000224640210548FEF79DFF04E022468021A7
:1025A0000248FEF797FF012070BD000000040240C2
:1025B00008B500BF002000900648006840F4800085
:1025C000044908600846006800F48000009000BFDD
:1025D00000BF08BD3038024000B587B0142102A802
:1025E000FDF74AFE00BF002001902F48006840F030
:1025F00004002D4908600846006800F004000190BE
:1026000000BF00BF00BF002001900846006840F0F6
:10261000800008600846006800F08000019000BF5C
:1026200000BF00BF002001900846006840F0010094
:1026300008600846006800F00100019000BF00BF7C
:1026400000BF002001900846006840F002000860CA
:102650000846006800F00200019000BF00BF0122A0
:102660004FF4E0511148FEF735FF0122C021104818
:10267000FEF730FF4FF4E05002900120039000205D
:102680000490059002A90948FEF70AFEC0200290B6
:102690000120039004900220059002A90448FEF74F
:1026A000FFFD07B000BD000030380240001C0240B2
:1026B0000004024010B51E481E4908604FF4E13086
:1026C000486000211B488160C16001610C214161AB
:1026D00000218161C161FFF7D1FB08B1FEF700FD68
:1026E0002020144981F83D0081F83E000120496B0B
:1026F00081F835000F49896B81F8350000BF002053
:102700000C49496B81F8340000BF00BF0949896B4F
:1027100081F8340000BF00BF064981F83C0000BFCB
:1027200008460068C06840F400500968C86010BDE1
:10273000001001403805002000BFFEE700BFFEE7A3
:102740007047704710B5FEF7D1FE10BD00B593B0CD
:10275000302107A8FDF790FD142102A8FDF78CFD9C
:1027600000BF002001902648006840F080502449B6
:1027700008600846006800F08050019000BF00BF6C
:1027800000BF002001901F48006840F440401D49F0
:1027900008600846006800F44040019000BF00BF98
:1027A000012007900004089002200D9041050E9131
:1027B0000F210F91D8211091022111910421129122
:1027C00007A8FFF7F3F808B1FEF78AFCFEF768FFE9
:1027D00008B1FEF785FC0F20029002200390002034
:1027E00004904FF4A05005904FF4805006900521BE
:1027F00002A8FEF79BFF08B1FEF772FC13B000BD04
:1028000040380240007000400348006840F4700007
:10281000014908607047000088ED00E02DE9F84F9D
:1028200004462068006920F44050E16808432168AC
:1028300008612169A068084361690843E1690843A8
:1028400000902068C06849F20C61884300990843F1
:102850002168C8602068406920F44070A16908437D
:102860002168486176492068884203D0754920680C
:10287000884203D1FFF732F8814602E0FFF71EF8E5
:102880008146E069B0F5004F6CD102206168A0FB81
:10289000015003461920A9FB007001462A4638461C
:1028A000FDF7A0FC6421B0FBF1F04FEA001A022012
:1028B0006168A0FB01510B461920A9FB00712A4653
:1028C0003846FDF78FFC834602206168A0FB01506B
:1028D00003461920A9FB00712A463846FDF782FC01
:1028E0006421B0FBF1F000EBC00101EB0010ABEB99
:1028F0008000322101EBC0006421B0FBF1F000F058
:10290000F8000AEB400A02206168A0FB0150034670
:102910001920A9FB007001462A463846FDF762FCE3
:10292000834602206168A0FB015003461920A9FBE1
:1029300000712A463846FDF755FC6421B0FBF1F0E2
:1029400000EBC00101EB0010ABEB8000322101EB8A
:10295000C0006421B0FBF1F000F007005044216892
:1029600088606AE004206168A0FB015003461920DA
:10297000A9FB007001462A463846FDF733FC824623
:1029800004206168A0FB015003461920A9FB0070D8
:1029900001462A463846FDF725FC6421B0FBF1F0DC
:1029A00000EBC00101EB0010AAEB8000322101EB2B
:1029B00000106421B0FBF1F000F0F00A042061681F
:1029C000A0FB017003461920A9FB00513A46284696
:1029D000FDF708FC6421B0FBF1F00AEB001A0420BB
:1029E0006168A0FB01510B461920A9FB00712A4622
:1029F0003846FDF7F7FB834604206168A0FB0150D1
:102A000003461920A9FB007001462A463846FDF707
:102A1000E9FB6421B0FBF1F000EBC00101EB001019
:102A2000ABEB8000322101EB00106421B0FBF1F030
:102A300000F00F00504421688860BDE8F88F000066
:102A4000001001400014014070B506460C461546C2
:102A50000648864208D12A4605A10C4800F0B4FC7D
:102A60002946204600F014F870BD0000380500200B
:102A7000B1BEB4CEBDD3CAD5B5BDD7D6BDDACAFDB9
:102A8000CEAA3A2025750D0A000000003802002069
:102A900010B50246002302B109B9012010BD06E0BD
:102AA0005B1C4FF6FF70834201D30320F6E7F74823
:102AB00000680068C0F380100028F1D06FF040007B
:102AC000F24C246820602020F04C84F83D00012066
:102AD000646B84F8350000BF0020EC4C646B84F814
:102AE000340000BF00BFE94C84F83C0000BF204622
:102AF000406B006841602046406B0068C260204621
:102B0000406B0068E24CA04275D9E048406B006819
:102B1000E04CA04201D1202068E0DC48406B006816
:102B2000DB4C483CA04201D120205FE0D748406BFD
:102B30000068D84C6034A04201D1202056E0D34830
:102B4000406B0068D24C1834A04201D120204DE0E7
:102B5000CE48406B0068CF4C1834A04201D1C0145D
:102B600044E0CA48406B0068C94C303CA04201D1E7
:102B7000C0143BE0C548406B0068C64C7834A042A6
:102B800001D1C01432E0C148406B0068C04C303401
:102B9000A04201D1C01429E0BC48406B0068BD4C84
:102BA0003034A04202D14FF400101FE0B748406B10
:102BB0000068B74C183CA04202D14FF4001015E059
:102BC000B248406B0068B34C9034A04202D14FF43D
:102BD00000100BE0AD48406B0068AD4C4834A0429B
:102BE00002D14FF4001001E04FF00060A84C4C3CC3
:102BF000206072E1FFE7A548406B0068A54CA8344F
:102C0000A04275D9A148406B0068A24CA04201D1F6
:102C1000202069E09D48406B00689D4C483CA042E4
:102C200001D1202060E09948406B0068994C6034E5
:102C3000A04201D1202057E09448406B0068944C9A
:102C40001834A04201D120204EE09048406B00682B
:102C5000904C1834A04201D1C01445E08B48406B21
:102C600000688B4C303CA04201D1C0143CE0874846
:102C7000406B0068874C7834A04201D1C01433E027
:102C80008248406B0068824C3034A04201D1C014AD
:102C90002AE07E48406B00687E4C3034A04202D16E
:102CA0004FF4001020E07948406B0068784C183CE5
:102CB000A04202D14FF4001016E07448406B006847
:102CC000744C9034A04202D14FF400100CE06F48D5
:102CD000406B00686E4C4834A04203D14FF40010A2
:102CE00002E005E04FF00060694C503C2060F4E0E9
:102CF0006648406B0068674C4834A04275D9634809
:102D0000406B0068634CA04201D1202068E05F481E
:102D1000406B00685E4C483CA04201D120205FE03F
:102D20005A48406B00685B4C6034A04201D12020BF
:102D300056E05648406B0068554C1834A04201D10B
:102D400020204DE05148406B0068524C1834A0429E
:102D500001D1C01444E04D48406B00684C4C303CFD
:102D6000A04201D1C0143BE04848406B0068494C88
:102D70007834A04201D1C01432E04448406B00686E
:102D8000434C3034A04201D1C01429E03F48406B8D
:102D90000068404C3034A04202D14FF400101FE0D4
:102DA0003A48406B00683A4C183CA04202D14FF4BC
:102DB000001015E03548406B0068364C9034A04256
:102DC00002D14FF400100BE03048406B0068304CEB
:102DD0004834A04202D14FF4001001E04FF00060EF
:102DE0002C4C103CE06078E0FFE72848406B00681E
:102DF000284CA04201D120206CE02448406B0068A0
:102E0000234C483CA04201D1202063E01F48406B86
:102E10000068204C6034A04201D120205AE01B48B9
:102E2000406B00681A4C1834A04201D1202051E0B8
:102E30001648406B0068174C1834A04201D1C014EA
:102E400048E01248406B0068114C303CA04201D170
:102E5000C0143FE00D48406B00680E4C7834A0422F
:102E600001D1C01436E00948406B0068084C30348A
:102E7000A04201D1C0142DE00448406B0068054C0D
:102E80003034A04208D14FF4001023E03805002070
:102E900058640240106002401648406B0068164CAF
:102EA000A04202D14FF4001014E01248406B0068B9
:102EB000124CA04202D14FF400100BE00D48406BC1
:102EC00000680D4C6034A04202D14FF4001001E0C4
:102ED0004FF00060094CA03CA0600648406B0068C1
:102EE000006840F00100034C646B246820600020FF
:102EF000D4E500003805002040640240A060024094
:102F000038B5F94800680068C0F30010002871D097
:102F100000BF00200090F448006800680090F2486C
:102F200000684068009000BF00BFEF48806B0068F9
:102F3000006820F00100EC49896B09680860EA48E4
:102F4000806B00684068C0F5807085B20024E64858
:102F5000806B0068006800F4002058B1E34CE24840
:102F6000806B0068006820F40020DF49896B0968E5
:102F700008600AE0DE4CDC48806B0068006840F4C2
:102F80000020D949896B096808602020D64981F85A
:102F90003E000120896B81F8350000BF0020D24936
:102FA000896B81F8340000BF4FF48070CE49896B83
:102FB00009684860CC48406B0068CE49884276D9A1
:102FC000C948406B0068CC49884201D120206AE0A2
:102FD000C548406B0068C7494839884201D1202064
:102FE00061E0C148406B0068C3496031884202D14A
:102FF000202058E0E1E1BC48406B0068BD49183131
:10300000884201D120204EE0B748406B0068BA49A1
:103010001831884201D1C01445E0B348406B0068C4
:10302000B4493039884201D1C0143CE0AE48406B0D
:103030000068B1497831884201D1C01433E0AA4810
:10304000406B0068AB493031884201D1C0142AE09E
:10305000A548406B0068A8493031884202D14FF43E
:10306000001020E0A048406B0068A249183988424F
:1030700002D14FF4001016E09B48406B00689E4957
:103080009031884202D14FF400100CE09648406B1A
:10309000006898494831884203D14FF4001002E09B
:1030A00005E04FF0006093494C39086075E18E48A7
:1030B000406B00689049A831884275D98A48406BB6
:1030C00000688D49884201D1202069E08648406B24
:1030D000006888494839884201D1202060E0824850
:1030E000406B006884496031884201D1202057E05C
:1030F0007D48406B00687F491831884201D120200B
:103100004EE07948406B00687B491831884201D114
:10311000C01445E07448406B0068764930398842F5
:1031200001D1C0143CE07048406B006872497831AE
:10313000884201D1C01433E06B48406B00686D4990
:103140003031884201D1C0142AE06748406B0068E2
:1031500069493031884202D14FF4001020E06248C2
:10316000406B006863491839884202D14FF400105F
:1031700016E05D48406B00685F499031884202D19B
:103180004FF400100CE05848406B00685949483132
:10319000884203D14FF4001002E005E04FF00060D8
:1031A000544950390860F8E04F48406B0068524974
:1031B0004831884275D94C48406B00684E49884276
:1031C00001D1202068E04848406B006849494839EF
:1031D000884201D120205FE04348406B00684649A7
:1031E0006031884201D1202056E03F48406B0068A2
:1031F00040491831884201D120204DE03A48406BC7
:1032000000683D491831884201D1C01444E0364875
:10321000406B006837493039884201D1C0143BE027
:103220003148406B006834497831884201D1C0147C
:1032300032E02D48406B00682E493031884201D180
:10324000C01429E02848406B00682B49303188427F
:1032500002D14FF400101FE02348406B006825495D
:103260001839884202D14FF4001015E01E48406B17
:10327000006821499031884202D14FF400100BE0E0
:103280001948406B00681B494831884202D14FF40D
:10329000001001E04FF0006017491039C8607CE071
:1032A000FFE71148406B00681349884201D1202094
:1032B00070E00D48406B00680E494839884201D1E2
:1032C000202067E00848406B00680B496031884265
:1032D00001D120205EE00448406B006805491831A8
:1032E00088420BD1202055E038050020380400200A
:1032F0003803002058640240106002402F48406BA1
:1033000000682F49884201D1C01443E02B48406B2C
:1033100000682C49884201D1C0143BE02748406B2B
:10332000006827496031884201D1C01432E0234847
:10333000406B006823496031884201D1C01429E004
:103340001E48406B00681E491831884202D14FF474
:1033500000101FE01948406B00681A491831884274
:1033600002D14FF4001015E01448406B0068144976
:103370007831884202D14FF400100BE00F48406BC7
:10338000006810497831884202D14FF4001001E002
:103390004FF000600A49283988600848806B00684F
:1033A000006840F001000549896B096808602A46F9
:1033B00021460248FFF748FB00BF38BD3805002012
:1033C00028600240286402400FB4F8B50446002685
:1033D00000250CB1079818B90120F8BC5DF814FB62
:1033E00006E0761C4FF6FF70864201D30320F4E717
:1033F000F94800680068C0F380100028F1D06FF031
:103400004000F549096808602020F34981F83D0033
:103410000120496B81F8350000BF0020EE49496B5F
:1034200081F8340000BF00BFEB4981F83C0000BFC9
:1034300008A800902046009A079900F023FA054654
:1034400000200090681C08B90120C6E7A8B2E24934
:10345000496B09684860E048406B0068C460DE481A
:10346000406B0068DD49884275D9DB48406B0068D5
:10347000DB49884201D1202068E0D748406B0068D2
:10348000D6494839884201D120205FE0D248406BBC
:103490000068D3496031884201D1202056E0CE48EF
:1034A000406B0068CD491831884201D120204DE0A1
:1034B000C948406B0068CA491831884201D1C0141C
:1034C00044E0C548406B0068C4493039884201D1A6
:1034D000C0143BE0C048406B0068C1497831884265
:1034E00001D1C01432E0BC48406B0068BB493031A8
:1034F000884201D1C01429E0B748406B0068B84940
:103500003031884202D14FF400101FE0B248406BC6
:103510000068B2491839884202D14FF4001015E012
:10352000AD48406B0068AE499031884202D14FF4FB
:1035300000100BE0A848406B0068A8494831884259
:1035400002D14FF4001001E04FF00060A3494C3964
:10355000086072E1FFE7A048406B0068A049A8310D
:10356000884275D99C48406B00689D49884201D1CA
:10357000202069E09848406B0068984948398842A3
:1035800001D1202060E09448406B0068944960318C
:10359000884201D1202057E08F48406B00688F4956
:1035A0001831884201D120204EE08B48406B0068E2
:1035B0008B491831884201D1C01445E08648406BE0
:1035C000006886493039884201D1C0143CE0824805
:1035D000406B006882497831884201D1C01433E0E1
:1035E0007D48406B00687D493031884201D1C0146C
:1035F0002AE07948406B006879493031884202D12D
:103600004FF4001020E07448406B0068734918398B
:10361000884202D14FF4001016E06F48406B0068FA
:103620006F499031884202D14FF400100CE06A4893
:10363000406B006869494831884203D14FF400105B
:1036400002E005E04FF00060644950390860F4E0A2
:103650006148406B006862494831884275D95E48CC
:10366000406B00685E49884201D1202068E05A48DA
:10367000406B006859494839884201D120205FE0F9
:103680005548406B006856496031884201D120207E
:1036900056E05148406B006850491831884201D1CA
:1036A00020204DE04C48406B00684D49183188425D
:1036B00001D1C01444E04848406B006847493039A4
:1036C000884201D1C0143BE04348406B0068444944
:1036D0007831884201D1C01432E03F48406B006825
:1036E0003E493031884201D1C01429E03A48406B4C
:1036F00000683B493031884202D14FF400101FE08E
:103700003548406B006835491839884202D14FF47A
:10371000001015E03048406B006831499031884214
:1037200002D14FF400100BE02B48406B00682B498E
:103730004831884202D14FF4001001E04FF00060A0
:1037400027491039C86078E0FFE72348406B0068DC
:103750002349884201D120206CE01F48406B00685B
:103760001E494839884201D1202063E01A48406B45
:1037700000681B496031884201D120205AE0164878
:10378000406B006815491831884201D1202051E072
:103790001148406B006812491831884201D1C014A9
:1037A00048E00D48406B00680C493039884201D12F
:1037B000C0143FE00848406B0068094978318842EE
:1037C00001D1C01436E00448406B00680349303131
:1037D000884207D1C0142DE038050020586402400B
:1037E000106002401B48406B00681B49884202D1B0
:1037F0004FF400101EE01748406B006817498842DC
:1038000002D14FF4001015E01248406B00681249D5
:103810006031884202D14FF400100BE00D48406B3C
:1038200000680E496031884202D14FF4001001E077
:103830004FF000600849403988600648406B0068D6
:10384000006840F001000349496B096808600020E6
:10385000C3E500003805002040600240406402409B
:1038600000BFFEE70FB4054B10B503A9044A029848
:1038700000F008F910BC5DF814FB0000BD41000821
:103880001000002037B514460846064B6A4621460C
:1038900000F0F8F804466946002000F08AFC204653
:1038A0003EBD0000B341000802480068C0F302209A
:1038B000704700000CED00E010B5002804DB0A079B
:1038C000130E054A135406E00A07140E034A00F0CB
:1038D0000F031B1FD45410BD00E400E018ED00E0FE
:1038E00002E008C8121F08C1002AFAD170477047C9
:1038F000002001E001C1121F002AFBD17047000027
:103900002DE9FF5F82B00021DDE90430020DDDF812
:1039100040B0034318D044F61050A2F2FF324243A5
:103920001514119801281FD0A5EB0B00401C5FEA6D
:10393000000A4FF000064E4FDFF83891B04650466F
:1039400015D5CAF1000413E0119801244AA30128F7
:1039500001D16FEA0B010298119AC0E90031C0E968
:10396000024206B0BDE8F09FCBF10000DFE704465D
:103970000021404A491842EB0450CDE9001012E002
:10398000E00707D032463B4640464946FCF75BFD20
:103990008046894632463B4610461946FCF753FDA1
:1039A00006460F466410002CEAD1DDE90401DDE98A
:1039B0000023BAF1000F06DAFCF745FD42464B46FC
:1039C000FCF741FD05E0FCF7B0FD42464B46FCF735
:1039D000ACFD04460E460022284BFCF72DFE03D812
:1039E0004FF0FF30014607E00022254B20463146CC
:1039F000FCF782FCFCF708FE102409E0002C0ADB2F
:103A00000A220023FCF7EEFB039B30321A55641E9A
:103A100050EA0102F2D1641C039AC4F11103144468
:103A2000119A012A03D0012208430DD10AE008436C
:103A300004D000204FF0110B119072E7A3EB0B059F
:103A40006D1E0DE05B4504DD4FF0000205F1010540
:103A500004E003DA4FF00002A5F10105002AECD0E2
:103A600002981199C0E90231C0E9004579E70000E8
:103A7000000014400000F03F300000000000F04360
:103A80000000E03F2DE9FF4F95B09B468946064672
:103A900000250FE2252877D100242746F84A012186
:103AA000059400E0044316F8013F203B01FA03F0BF
:103AB0001042F7D130782A2811D06FF02F033078D8
:103AC000A0F13002092A16D8059A44F0020402EB4C
:103AD000820203EB42021044761C0590EFE759F88E
:103AE000042B0592002A03DA504244F40054059056
:103AF00044F00204761C30782E2816D116F8010FF7
:103B000044F004042A280DD06FF02F023078A0F181
:103B10003003092B09D807EB870302EB4303C718CF
:103B2000761CF3E759F8047B761C30786C280FD0AC
:103B300006DC4C2817D068280DD06A2814D104E080
:103B4000742810D07A280FD10DE044F400140AE054
:103B500044F4801401E044F440147278824202D1AB
:103B600004F58014761C761C307866280BD013DCA4
:103B7000582877D009DC002875D04528F6D046288B
:103B8000F4D047281AD19DE118E0632835D0642885
:103B900079D0652812D195E1702873D008DC6728A8
:103BA000F1D069286FD06E280DD06F2806D1B5E00E
:103BB00073282CD0752875D0782874D05A46179958
:103BC00090476D1C75E1C4F30250022809D0032808
:103BD0000DD0D9F8001004280DD00D6009F10409AA
:103BE00067E1D9F80010EA17C1E90052F6E7D9F801
:103BF00000100D80F2E70D70F0E719F8041B8DF846
:103C0000001000208DF80100EA46012003E059F879
:103C100004AB4FF0FF3061074FF0000102D40DE01C
:103C200008F101018846B9420FDA8045F8DB1AF83D
:103C300008100029F4D108E008F10101884681420A
:103C4000FADB1AF808100029F6D105985B46A0EBBC
:103C5000080721463846179A00F094FA284400EBEA
:103C6000080507E04DE029E10DE01AF8010B5A467E
:103C700017999047B8F10108F7D25B4621463846BC
:103C8000179A13E142E00A220092C4F302524FF065
:103C9000000A022A08D059F804CB032A4FEAEC7133
:103CA0000AD00DE029E02AE009F1070121F007021E
:103CB000F2E802C1914609E00FFA8CFC4FEAEC7180
:103CC000042A03D14FFA8CFC4FEAEC71002907DA81
:103CD0000A460021DCF1000C61EB02012D2202E01A
:103CE000220504D52B228DF80420012203E0E207EF
:103CF00001D02022F7E7904659E00A2102E0102285
:103D00000DE010214FF0000A00910BE010224FF05F
:103D1000000A44F004040827009203E008224FF050
:103D2000000A0092C4F30252022A05D059F804CBCB
:103D30000021032A08D009E009F1070121F0070258
:103D4000F2E802C1914605E01FFA8CFC042A01D179
:103D50000CF0FF0C4FF00008220728D5702806D081
:103D6000009B83F0100353EA0A0305D00EE04022C3
:103D70008DF80420012208E05CEA010206D030221E
:103D80008DF804208DF8050002229046009B83F0F8
:103D9000080353EA0A030AD15CEA010201D162076F
:103DA00005D530228DF804204FF001087F1E5828D9
:103DB00004D034A003900EA802900DE036A0F9E7DD
:103DC00053466046009AFCF70DFA84460398825CDD
:103DD0000298401E029002705CEA0100F0D1029845
:103DE00006A9081A00F1200A600702D524F48034DD
:103DF00000E00127574502DDA7EB0A0000E00020A4
:103E000000EB0A01009005984144401A0590E00338
:103E100006D45B462146179A059800F0B3F905448D
:103E2000002706E001A85A46C05D179990476D1C0F
:103E30007F1C4745F6DBE0030CD55B462146179A0D
:103E4000059800F09FF9054404E030205A46179980
:103E500090476D1C0099481E00900029F5DC08E091
:103E6000029802995A460078491C02911799904786
:103E70006D1CBAF10001AAF1010AF1DC65E1000054
:103E80000928010030313233343536373839616230
:103E900063646566000000003031323334353637F4
:103EA00038394142434445460000000000F058F9CB
:103EB0000544761C307800287FF4ECAD19B0284614
:103EC000BDE8F08F620700D4062709F1070222F04F
:103ED000070CFCE80223E14603F000485FEA080C07
:103EE00002D00FF2702C0DE05FEA045C02D50FF2F5
:103EF000682C07E05FEAC47C02D00FF2602C01E07E
:103F0000AFF2700C4FF0FF3823F00043CDF850C0F3
:103F100065280CD006DC452809D046281DD0472846
:103F20003DD13DE0662818D067287ED138E00021D9
:103F3000112F01DB112000E0781CCDE9000106A95A
:103F40000EA8FFF7DDFCDDE90F010E9A03910021B9
:103F5000009207F1010A04914DE04FF000400097F4
:103F6000CDE9011006A90EA8FFF7CAFCDDE90F0292
:103F700003920E9B11990022DDF80CA0009304928D
:103F800011B9791C00EB010AB7EB0A0004D4C0F1A7
:103F9000FF3007F1010A0490AAEB0700019044E00A
:103FA000012F00DA01270021112F01DD112000E08F
:103FB0003846CDE9000106A90EA8FFF7A1FCDDE90E
:103FC0000F010E9A0391002104910092BA46210735
:103FD0000CD40399514500DA8A46BAF1010F05DD88
:103FE000009AAAF10101515C302908D0B84202DAE6
:103FF00010F1040F06DA0121CDE9011015E0AAF154
:104000000101E9E7002805DC049901440491AAEBC9
:10401000000102E0411C514500DD8A460499401A26
:10402000401C01904FF000400290200704D40198FA
:10403000504501DBCDF8048000208DF84F00029838
:104040000DF14F07B0F1004F25D02B200E900298B4
:104050004FF0020800280CDA404202902D200E900A
:1040600007E00A210298FCF712F93031029007F8B4
:10407000011DB8F10001A8F10108F2DC0298002846
:10408000EFD1791E0E980870307800F0200040F0D3
:10409000450007F8020D12A8C01B00F1070814988C
:1040A000007800B1012000EB0A01019801EBE071FA
:1040B00005984144401A401E0590E00306D45B4633
:1040C0002146179A059800F05DF805441498007889
:1040D00018B15A46179990476D1CE00324D55B46EA
:1040E0002146179A059800F04DF805441CE0049805
:1040F000002807DBDDE90301884203DD0098405C0E
:10410000179901E0179930205A469047049805F115
:104110000105401C04900198401E019004D12E20FE
:104120005A46179990476D1CBAF10001AAF1010A8D
:10413000DDDC05E017F8010B5A46179990476D1C16
:10414000B8F10001A8F10108F4DC5B462146179A9A
:104150000598ABE62D0000002B00000020000000B9
:104160002DE9F041044600251E461746880404D474
:1041700005E039462020B0476D1C641EF9D528465D
:10418000BDE8F0812DE9F041044600251E46904629
:10419000C80301D5302700E02027880404D505E0B6
:1041A00041463846B0476D1C641EF9D52846BDE827
:1041B000F0810A68531C0B6010707047C2B2064B46
:1041C0001B685A6000BF044A12681268C2F3C0122A
:1041D000002AF8D070470000380500200EB54FF0D7
:1041E000006015490860FDF78DF9FEF7AFFAFEF79C
:1041F000F3F9FEF7DDF9FEF75DFA104A07CA8DE81C
:10420000070069460E48FCF7B1FA0E4A0E490C4801
:10421000FCF7E6FC0EE04FF400610C48FDF750F9A6
:104220006420FDF729F80AA0FFF71CFB0AA10C483F
:10423000FFF7CAF8EFE7000008ED00E0644200086D
:104240002C0000203801002038000020001C024013
:1042500048656C6C6F200000576F726C640D0A002B
:10426000380200200D2400088524000835240008A9
:104270003D250008D5240008692500088925000887
:104280001925000800061016000610160000000090
:1042900000000000010203040607080900000000F6
:1042A00001020304415432344358585F496E697423
:1042B00000415432344358585F576169745F466F08
:1042C000725F526561647900415432344358585FDB
:1042D0005265616400415432344358585F506167FD
:1042E000655F577269746500415432344358585FB2
:1042F000577269746500415432344358585F5465AD
:104300007374000024430008000000201400000023
:10431000E038000838430008140000202C0A000090
:10432000F03800080000000010000000010000004C
:084330000024F400000000006D
:04000005080001AD41
:00000001FF
